:020000040800F2
:1000000000900020B9A4000869A1000885A100089B
:1000100000000000000000000000000000000000E0
:10002000000000000000000000000000A1A1000886
:100030000000000000000000A3A10008A5A1000826
:1000400009A500080000000009A5000809A500088E
:1000500009A5000809A50008ADA10008C1A1000874
:100060000000000009A5000809A5000809A500086E
:1000700009A5000809A5000809A50008000000005E
:1000800009A5000809A5000809A5000809A5000898
:1000900009A5000809A5000809A5000809A5000888
:1000A00009A5000809A5000809A5000809A5000878
:0800B00009A5000809A50008DC
:1000B80010B5064C2378002B07D1054B002B02D036
:1000C800044800E000BF0123237010BDE0000020B9
:1000D80000000000A8030108044B10B5002B03D052
:1000E8000349044800E000BF10BDC04600000000FE
:1000F800E4000020A80301080023C25C0133002AA1
:10010800FBD1581E7047000003B4714649084000EF
:100118004900095E49008E4403BC70470022430829
:100128008B4274D303098B425FD3030A8B4244D3B7
:10013800030B8B4228D3030C8B420DD3FF220902F9
:1001480012BA030C8B4202D31212090265D0030BB8
:100158008B4219D300E0090AC30B8B4201D3CB03AE
:10016800C01A5241830B8B4201D38B03C01A5241F0
:10017800430B8B4201D34B03C01A5241030B8B42F2
:1001880001D30B03C01A5241C30A8B4201D3CB02DD
:10019800C01A5241830A8B4201D38B02C01A5241C2
:1001A800430A8B4201D34B02C01A5241030A8B42C5
:1001B80001D30B02C01A5241CDD2C3098B4201D3DD
:1001C800CB01C01A524183098B4201D38B01C01A5B
:1001D800524143098B4201D34B01C01A52410309D2
:1001E8008B4201D30B01C01A5241C3088B4201D381
:1001F800CB00C01A524183088B4201D38B00C01A2E
:10020800524143088B4201D34B00C01A5241411A54
:1002180000D20146524110467047FFE701B5002061
:1002280000F006F802BDC0460029F7D076E770470F
:100238007047C0468446100062468C4619006346E3
:1002480000E0C0461FB501F0E5FB002801D40021FD
:10025800C8421FBD10B501F025FB4042013010BD5A
:1002680010B501F0D7FB002801DB002010BD0120EC
:1002780010BDC04610B501F0CDFB002801DD0020FF
:1002880010BD012010BDC04610B501F04FFB00287D
:1002980001DC002010BD012010BDC04610B501F0E2
:1002A80045FB002801DA002010BD012010BDC04622
:1002B800844608006146FFE71FB500F0FBFB0028F5
:1002C80001D40021C8421FBD10B500F07BFB40429D
:1002D800013010BD10B500F0EDFB002801DB002057
:1002E80010BD012010BDC04610B500F0E3FB00288A
:1002F80001DD002010BD012010BDC04610B500F082
:1003080089FB002801DC002010BD012010BDC0467B
:1003180010B500F07FFB002801DA002010BD012095
:1003280010BDC046002B15D1002A13D1002906DBC9
:1003380001DC002806D00020C043410802E08021EB
:100348000906002007B4024801A14018029003BD25
:10035800E1FEFFFF03B4684601B5029800F06AF8B1
:10036800019B9E4602B00CBC7047C046F0B5CE4615
:100378009946030C9C46130447461B0C1D000E00AF
:1003880061460404240C80B50700100C4B436543F8
:10039800414360432C0CC01824188C46A34203D94F
:1003A80080235B029846C444494679435643230C4C
:1003B8002D042D0C8919634424046019C918C0BC84
:1003C800B946B046F0BDC0469E2110B5C905041C0B
:1003D800FFF79EFF002803D1201C00F09BFE10BDF4
:1003E8009E21201CC90500F0F1FC00F093FE80233B
:1003F8001B069C466044F2E770B500220C4B0400D3
:100408000D00FFF74BFF002804D12000290002F05F
:10041800D7F970BD064B00222000290001F034FEF8
:1004280002F0CEF980231B069C466044F1E7C046E3
:100438000000E041F8B5CE46474680B5914698465B
:1004480004000D0002F034FB07000E0002000B0050
:1004580048464146FFF78AFF241A8D41089B380019
:1004680031001C605D60C0BCB946B046F8BDC046EE
:10047800F8B5CE46474643025A0A4E024500C40F15
:10048800480091462D0E720A000E944680B59B09CD
:10049800C90FB6092A1A8C4221D0002A0DDD00287E
:1004A8002DD1002E00D18DE0511E012A00D11DE171
:1004B800FF2A00D1ABE00A0027E0002A4DD0421BFA
:1004C800002D00D0CCE0002B00D179E0541E012A89
:1004D80000D128E1FF2A00D197E02200C5E0002AD8
:1004E80000DC96E000284FD0FF2D00D18FE080215E
:1004F800C9040E431B2A51DD2A00013318E0FF2DE1
:1005080000D184E08021C9040E4301211B2A08DCA4
:1005180031002020D140821A96403200501E82417C
:1005280011435B1A5A0159D407212A00194049D0AE
:100538000F211940042900D00433590142D5501C19
:10054800FE2A3AD09B01C0B25B0AC0051843E407F3
:100558002043C0BCB946B046F8BDFE2080466F1C9B
:1005680038004746074200D08EE0002D00D0B4E0A6
:10057800002B00D1DBE0002E6CD0981B450100D485
:10058800F7E00C00F31A3DE0002E1BD0511E012AA3
:1005980000D182E0FF2A3AD00A00ABE731002020E0
:1005A800D140821A96403200501E82410A439B185D
:1005B8005A01B9D56A1CFE2D75D1FF200023C4E766
:1005C8000C003300DB08FF2A46D1002BF5D080222F
:1005D800D20313435B02FF205B0AB6E79F01BF0902
:1005E800380002F047FA05388740854224DC3B0092
:1005F8002021421B0132D3408A1A97407A1E974124
:1006080000223B43590793D197E70C003300DB08DE
:10061800DBE7002A14D0421B002D4BD1002BD0D091
:10062800511E012A00D19EE0FF2AEFD00A001B2AA2
:100638005FDD0200731C7BE7504B2A1A3B40E1E761
:10064800FE216A1C11423BD1002D5DD1002B7FD0C9
:10065800002E7FD10022DB085B025B0AD0B274E770
:10066800FF28D2D08024E404234301241B2A07DC7A
:100678001C002025D440AA1A93405A1E93411C43BB
:10068800331B05000C004DE79F1B7A0122D4002F75
:10069800A6D100240020002357E79B190125013229
:1006A800590100D440E70121354819405B0803404F
:1006B8000B43A7E7FF28A9D08021C9040B43B6E75D
:1006C800FF2A00D179E79B195B08590700D02FE76B
:1006D800DB08C1E70C00F71A82E7002B2CD1002EAB
:1006E80093D180230024FF20DB032EE701259B1BE9
:1006F80018E719002025D140AA1A93405A1E9341A1
:100708000B4305009B1953E7002B00D17EE7002E11
:1007180000D17CE78022D203914502D3944500D2D0
:100728003300DB0853E70C00F31A0135FAE6002E14
:10073800AFD00C0033008DE7002E00D167E7802290
:10074800D2039145EDD39445EBD20C003300E8E792
:1007580033007FE79B1900225901B9D5074A134096
:10076800DB08012278E79B190132013559019AD437
:10077800DAE6031E8DD0DB086EE7C046FFFFFFFBFD
:10078800FFFFFF7DF0B54F464646D6464402C0B54A
:1007980047000E1C640A3F0EC50F002F3CD0FF2FE8
:1007A80042D00023802299469A46E400D20414439A
:1007B8007F3F73025B0A984673001B0EF60F002BEF
:1007C8001BD0FF2B13D042468021D200C90411430D
:1007D800884600207F3B2900FF1A4B467140C9B26A
:1007E8000F2B00D9B5E0744A9B00D3589F46434667
:1007F800002B3FD1FF3F023303E04346002B2DD1AE
:10080800012329004A467140C9B21A430E2A38D832
:100818006A48920082589746002C13D104239946BF
:10082800033B00279A46C4E7002C05D108239946C4
:10083800063BFF279A46BCE70C239946093BFF274E
:100848009A46B6E7200002F015F97627431F9C4028
:1008580000237F4299469A463F1AAAE7404602F08B
:1008680009F94246431F9A4076235B421B1A904679
:100878000020B0E703234A461A4391460320FC337D
:10088800A9E70D00FF200022C005ED07104328430B
:10089800E0BCBA46B146A846F0BD0D0000200022D3
:1008A800F2E75346022BEDD0032B33D0A046012BA1
:1008B80005D100200022E7E7350003287AD03B0065
:1008C8007F33002B2DDD4246520707D00F224146C9
:1008D8000A40042A02D004229446E0444246120107
:1008E80005D54246364B1A403B0090468033FE2BD6
:1008F800C8DC42469201520AD8B2C5E780220025D8
:10090800FF20D203C0E78022D203144202D043461C
:10091800134249D08022D20322435202FF20520AB6
:10092800B2E70122D31A1B2BC3DC4246DA40434606
:100938009E37BB40591E8B411A43530704D00F23DF
:100948001340042B00D00432530129D50120002282
:100958009AE7424663015501AB4215D21B2000229B
:10096800013F01261C0052005B00002C01DB9D4268
:1009780001D85B1B324301380028F3D1581E83414C
:10098800134398460D009AE71A2001225B1BE8E7FB
:10099800023B5A4253415B4235000022D8B273E70A
:1009A80092010020520A6FE71A4352023500FF20D5
:1009B800520A69E74446ADE7C8030108080401087C
:1009C800FFFFFFF770B542004E024C0045026D0A6A
:1009D800120EC30F760A240EC90FFF2A10D0FF2C5F
:1009E8000CD00120A2420AD1B54208D18B420FD0C7
:1009F800002A04D12800431E984100E0012070BD60
:100A08000120FF2CFBD13543F9D14B401800F6E704
:100A18000020F4E730B5420044024D02C30F4800FD
:100A2800640A120E6D0A000EC90FFF2A19D0FF289A
:100A38000BD0002A1ED100280BD1002D27D0002C66
:100A480034D100292FD0080030BD002D28D1002A2C
:100A580001D1002CF5D08B4207D1002B23D01800F0
:100A6800F2E7002C1CD1FF2814D0581E022318408E
:100A78000138E9E70028F8D08B42F6D18242F4DC4D
:100A8800EBDBAC42F1D80020AC42DDD2E5E7002C2C
:100A9800DAD0EAE7002D03D18B42E6D10020D3E774
:100AA80002204042D0E701204042CDE78B42E8D007
:100AB800DBE7C04630B5420044024D02C30F480090
:100AC800640A120E6D0A000EC90FFF2A1AD0FF28F9
:100AD8000ED0002A1ED100280ED1002D2AD0002CBD
:100AE8000CD08B421DD0581E02231840013810E04C
:100AF800002D0DD1002A20D1002C1ED1002923D091
:100B0800080006E0002C03D1FF28ECD1002D17D0F7
:100B1800022030BD0028E6D08B42E4D18242E2DCDC
:100B280004DBAC42DFD80020AC42F2D2002B0BD061
:100B38001800EEE7002CECD0D5E78B42D3D1F5E7CF
:100B480000208B42E5D0CEE701204042E1E7C046D5
:100B5800F0B54F464646D64643025B0A4500C0B547
:100B680099460F1C2D0EC60F002D00D188E0FF2DD1
:100B780000D18DE08022DB00D2041A430023914685
:100B880098469A467F3D7C027B00640A1B0EFF0F45
:100B9800002B68D0FF2B21D08022E400D20414431C
:100BA80042467F3B5B1900215D1C0A2A2EDC7E40F1
:100BB8004246022A23DC013A012A00D9BDE0022973
:100BC8006ED001292CD100200022C005F607104361
:100BD8003043E0BCBA46B146A846F0BD2B00FF330F
:100BE800002C65D003224146114332000135884666
:100BF8007A40FF350A2900DDD8E016000321404677
:100C080001228240A620C000024220D05346022B77
:100C180046D0032B00D1BBE051464C460129D2D027
:100C28002B007F33002B70DD620704D00F22224097
:100C3800042A00D00434220103D5634B1C402B0046
:100C48008033FE2B2CDCA201520AD8B2BDE79020DB
:100C58008000024227D1B938FF3810426DD03E00DB
:100C6800A1468A46D2E7002C41D1012342461A43C5
:100C780090462B00424601215D1C0A2A97DDC5E7F4
:100C8800002B26D104239846033B00259A467AE791
:100C9800002B18D108239846063BFF259A4672E791
:100CA800FF20002291E780220026FF20D2038CE754
:100CB80041460222013511438846FF350A29A5DC41
:100CC80002217E4074E70C239846093BFF259A468B
:100CD80059E7180001F0CEFE4A46431F76259A4090
:100CE80000236D42914698469A462D1A4BE72000FC
:100CF80001F0C0FE4246431F9C402B1A763B002160
:100D08005D1C0A2A00DC52E780E70122D31A1B2B5C
:100D180000DD58E79E352200AC40DA40631E9C4156
:100D28002243530704D00F231340042B00D004326E
:100D3800530137D50120002247E7210C4A462404F5
:100D4800240C2700100C1204120C44435743484348
:100D580051433A0C09195218944203D98021490287
:100D68008C4660443F0411043F0CC9198C01671E6E
:100D7800BC41120C890E12180C4392011443120143
:100D88000ED5012362081C40144349E73E00A146E2
:100D980080224B46D2031A435202FF20520A14E71C
:100DA8001D003DE792010020520A0EE70F29EDD100
:100DB80080224B46D2031342EAD01442E8D13E00C7
:100DC800FF20224301E7C046FFFFFFF7F8B547467B
:100DD800CE464E0243024500720AC40F480080B551
:100DE80094465F0A2D0E9B09000EC90FB609FF280D
:100DF80024D0012251402A1A8C420FD0002A00DC4C
:100E08006AE1002835D1002E00D1A2E0511E012A46
:100E180000D124E1FF2A21D00A002FE0002A00DCBB
:100E280067E100285ED0FF2D18D08021C9040E4349
:100E38001B2A00DC76E02A00013332E02A00FF3A60
:100E48009146002E42D08C4255D04A46002A00D105
:100E58009CE0002D00D177E00C003300DB08002B6C
:100E680000D16EE08022D20313435B02FF205B0AAD
:100E780024E0FF2DF2D08021C9040E4301211B2A52
:100E880008DC31002020D140821A96403200501EE2
:100E9800824111435B1A5A0160D407212A00194084
:100EA80057D00F211940042900D00433590150D5D7
:100EB800501CFE2A45D09B01C0B25B0AC0051843EE
:100EC800E4072043C0BCB946B046F8BD01225140F2
:100ED8008C42BAD14A46002A10D0002D00D198E0A1
:100EE8000023BBE7002E34D0511E012A6ED0FF2A02
:100EF800B4D00A009CE7002A00D088E0FE206A1CD3
:100F0800104200D092E0002D00D0A4E0002B00D1C8
:100F1800CBE0002E00D0CAE00022DB085B025B0AAF
:100F2800D0B2CBE731002020D140821A964032005F
:100F3800501E82410A439B185A01AED56A1CFE2DE9
:100F48004AD1FF200023B9E7FF22002B4BD10C0028
:100F58003300DB08FF2A00D181E7DFE79F01BF09E3
:100F6800380001F087FD05388740854221DC3B00C9
:100F78002021421B0132D3408A1A97407A1E97419A
:100F880000223B43590700D08BE78FE7FE206A1CFD
:100F9800104212D1002D52D1002B7CD0002EBBD094
:100FA8009A1B500100D48BE001240022F31A0C4054
:100FB800E8E7564B2A1A3B40E4E79F1B7A0146D4E0
:100FC800002FCDD100240020002377E79B190125AD
:100FD8000132590100D460E701214D4819405B08EE
:100FE80003400B43CEE7571E012A5AD00C00FF2AB4
:100FF80033D001221B2F07DC2021C91B1A008B408C
:10100800FA40591E8B411A430500B31A43E7002DD5
:1010180023D1FF22002B9BD0511E012AD6D0FF2AB4
:101028001BD01B292CDD0200731C3AE7FF2A88D04D
:101038009B195B08590700D033E7DB086EE7002BE4
:1010480010D1002E43D0012433000C4006E70124C0
:10105800F71A0C4084E7002B04D13300FEE6012583
:101068009B1B18E7002E00D1F8E68022D203974296
:1010780004D3944502D2012433000C40DB08F1E686
:101088001A002025CA40691A8B40591E8B41134308
:1010980005009B1950E7002E94D0012433000C4022
:1010A8003AE70C000125F31AF5E6330034E79B19FB
:1010B80000225901C1D5154A1340DB0801222DE74A
:1010C800002A00D17EE713000022DB0826E78023F0
:1010D8000024FF20DB03F1E6002A00D156E7471B76
:1010E8003A00002D00D130E78022D2040C001343CF
:1010F8007FE7002A00D101E7411B002D01D10A003A
:1011080088E78022D20413438BE7C046FFFFFFFB2A
:10111800FFFFFF7D41024200C30F490A0020120E63
:101128007E2A03DD9D2A02DD094A9818704780202F
:1011380000040143952A07DC9620821AD1404842D0
:10114800002BF3D10800F1E7963A9140F7E7C04643
:10115800FFFFFF7F70B5002813D0C317C5185D4087
:10116800C40F280001F086FC9E2301001B1A962B51
:101178000FDC082834D008398D406D026D0AD8B2CA
:1011880002E0002400200025C0052843E40720438E
:1011980070BD992B16DC421F052800D095402A0007
:1011A800114802406E0709D00F263540042D05D09E
:1011B8000432550102D59F2302405B1A9201550A59
:1011C800D8B2E1E70522121A2800D0400200080030
:1011D8001B3085402800451EA84102431500DEE764
:1011E8006D0296206D0ACFE7FFFFFFFB70B5041E66
:1011F8000ED001F03FFC9E2301001B1A962B0CDC3D
:1012080008282FD008398C406402640AD8B201E05B
:1012180000200024C005204370BD992B16DC421F16
:10122800052800D09440220010480240650709D0E4
:101238000F252C40042C05D00432540102D59F23DD
:1012480002405B1A9201540AD8B2E3E70200200078
:101258001B3290400200501E82410520401AC440B3
:101268001443E0E764029620640AD3E7FFFFFFFB1C
:10127800F0B5DE46454657464E46E0B587B0009283
:1012880001930B031B0B9B46CA0F4B0004008046BF
:101298005B0D029200D16AE1D44A934200D18CE1FD
:1012A8005946420FC9000A43802109041143C2006C
:1012B8009046CF4A894692469A44002300240393D5
:1012C800009E019F3B031B0B9B467B0030005B0D80
:1012D800FD0F002B00D128E1C44A934200D177E1E9
:1012E8005946720FC9000A438021090411438B46ED
:1012F800BF49F2008C4651466344CB1A9A460023F4
:10130800029E6E400F2C27D8BA49A40009598F466F
:10131800CB464246029E039B022B16D0032B00D1DC
:10132800A6E2012B00D0DFE0002200230024904633
:101338001B052343F60733434046190007B0F0BCAA
:10134800BB46B246A946A046F0BD002200249046FE
:10135800A64BEDE72E00DFE7CB4500D2D4E100D164
:10136800CFE101235B429C46444648460027E244BD
:101378005B46150E1B021D43190C2B041202009527
:101388001D0C914602910395FEF74EFF02006A4339
:101398000B04210C804619438A4209D9009D012378
:1013A800AC465B4261449C46E0448D4200D8FBE178
:1013B800881A0299FEF738FF039A24044243090465
:1013C800240C03000C43A24206D90099013B8C4629
:1013D8006444A14200D8E1E1A01A424612041A432B
:1013E80093464B4659461B0C1D0004930B04494673
:1013F8000904090C0C001B0C5C43120C6B43884657
:1014080051436A43250CAC465B186344994203D99F
:10141800802149028C466244190C24041B04240CC4
:101428008A181C19904202D316D1A74214D25B46DF
:10143800009D013B4F4405934F459B41AC465B42A1
:101448006344C018854200D3A1E1824200D9F6E185
:1014580000D1F1E1059B9B463C1BA742BF41009D83
:10146800801A7F42C01B854200D1D0E10299FEF765
:10147800DBFE039A0B044243210C070019438A42FE
:1014880000D978E1881A0299FEF7CEFE039A24045F
:1014980042430904240C03000C43A24200D95DE135
:1014A8004146A41A3A041A43049D13041B0C5943D9
:1014B80047466B439C46100C47430B0CBC446344A3
:1014C80068439F4203D980256D02AC4660441F0CD7
:1014D80009041B04090C3F185B18BC4200D202E146
:1014E80000D1FDE001231A43434B5344002B00DC99
:1014F800AEE0510700D098E15946C90106D55946D2
:101508003E4B194080238B46DB0053443C498B42B9
:1015180000DD1AE75946D208490711435A465B05C8
:1015280054028846240B5B0D02E75A46009B1A4377
:1015380000D17EE05B46002B00D100E1584601F067
:1015480099FA020003000B3A1D27009EBA1A1900E7
:101558005846D64008398840320002439346009ADC
:101568008A40284953448A469A440023C8E65B4681
:101578000343994656D05B46002B00D1CDE0584630
:1015880001F078FA0B235B429C46020084446646CD
:101598001D239B1B260011005846DE400839884051
:1015A80033000343994623008B409846164B00248A
:1015B8009B1A9A460023039382E65A4602439146B1
:1015C8002AD100229A46022390460824039377E6FC
:1015D8005A46009B1A430D4B9C46E244002A17D1F9
:1015E80002231C4300239B46023389E6FF070000C1
:1015F80001FCFFFF44040108FF030000FFFFFFFE9A
:10160800FE070000F30300000DFCFFFF01F8FFFFD9
:10161800032332001C4373E69A460323D9460C245D
:1016280003934DE6002398469A4601330424039316
:1016380046E601231C4300239B46013360E6002352
:10164800802498460026924B240371E601225242D8
:101658000121C91A382900DD66E61F2900DCABE044
:101668001F204042C31A5846D8400300202904D0FE
:1016780058468849514488400243511E8A411A43BA
:10168800072319000024114013420CD00F231340E4
:10169800042B00D1F9E0111D91429B410A005B42E5
:1016A80059075B021C0BD2080A43904600233FE609
:1016B80080244B462403234209D05B46234206D1AB
:1016C8001C4324032E009046714B240B30E68024E3
:1016D8004B4624031C432403029E6D4B240B27E630
:1016E800002B00D100E70098511E844664448442D0
:1016F80000D284E0BC4200D2AEE000D1C1E00A00D2
:10170800F0E6424500D92CE64B46DC07580843462C
:101718005B081C434346DF072AE601F0ABF91523B3
:101728009C4684440200634620321C2B00DC2EE7D2
:1017380023000838834099460023984636E701F08D
:1017480099F902000300153220331C2A00DCFBE65D
:1017580000990838814000228B4602E70099013B36
:101768008C466444A14200D99AE6A24200D897E682
:10177800831E644494E6AC466144013F8D4200D91F
:1017880080E68A4200D87DE6871E61447AE6854273
:1017980000D05FE6B94500D95CE656E6A24200D81B
:1017A8001AE6831E644417E68A4200D800E6AC466F
:1017B800831E98466144FBE5374814005044824034
:1017C8005B4617008340CC407A1E974123433B4336
:1017D8001A005B46CB40510709D00F21114004295C
:1017E80005D0111D9142924152429B180A001902DC
:1017F80000D455E7002201230024904698E50A000A
:10180800BC4200D06EE64B4500D06BE66CE6234B3D
:10181800234A5344924500DA18E7012149420A1D38
:101828008A42894149428B4466E60F2111400429C6
:1018380000D161E61100F2E7BC4200D80AE60223B3
:101848005B429C4600994F444F459B41E3448C467C
:101858005B426344C018FFE54946009D480048457F
:101868008941AC46494261448146023A6418C7E757
:1018780080245B4624031C4324039046044B240B1A
:1018880056E59945E8D30A00BDE7002308E7C046B6
:10189800FF0700003E0400001E040000FF030000D4
:1018A80002FCFFFFF0B55746DE464E464546E0B51A
:1018B8000D000400E80F83460903D80F090B824680
:1018C80019488C461F0369005E00490D3F0B760DD1
:1018D800814218D086420FD00120B1420DD1BC45BB
:1018E8000BD1944209D1D3451CD0002905D16046BB
:1018F8002043431E984100E00120F0BCBB46B2469D
:10190800A946A046F0BD01208E42F6D16146394372
:101918000F0017432743F0D15B465246981A431EDF
:101928009841EAE70020E8E7FF070000F0B55746CE
:101938004E464546DE46E0B50D000F03390B83B031
:101948000400804601915800E90F314F400D8C4644
:101958006E00190382469146760D090BD80FBE42D8
:101968001FD0BA450FD0002E2FD15546019E3443C3
:10197800002D27D10A433AD0002C45D100281AD18E
:101988000120404217E011433BD1002E02D1019FB4
:101998002743F3D0844509D16346002BF0D0604635
:1019A80009E0019F27432CD1B24524D06346022089
:1019B800013B1840013803B0F0BCBB46B246A9460B
:1019C800A046F0BD002CD9D0E4E75446002CEDD059
:1019D8008445EBD15645E9DCDEDB019B8B42E5D83B
:1019E800DAD1C845E2D80020C845E4D2D4E70020BF
:1019F800002CE0D0DAE7114303D18445D6D100208A
:101A0800D9E702204042D6E78445E6D0CEE7C04673
:101A1800FF070000F0B557464E464546DE46E0B59E
:101A28000D000F0304008046E80F390B844683B08D
:101A38005800304F400D01911E03690082469146BF
:101A4800490D360BD80FB94220D0BA450FD000291E
:101A58002BD101990C435146002937D1324338D054
:101A6800002C44D1002819D10120404216E0164329
:101A780013D1002902D1019F2743F3D0844520D0F8
:101A880063460220013B1840013807E0019F2743C5
:101A980003D18A45F4D116431FD0022003B0F0BC0D
:101AA800BB46B246A946A046F0BD5446002CE7D036
:101AB8008445E5D15145E3DC03DB019BB342DFD824
:101AC8000FD06346002BCFD06046E7E7002CC9D083
:101AD800D4E70020002CE1D0D2E78445D0D1002003
:101AE800DCE7C845CCD80020C845D7D2E9E784450B
:101AF800E3D0C5E7FF070000F0B55746DE464E467F
:101B08004546E0B51F000B031B0B16009A46CA0F8B
:101B18004B000400934687B05B0D00D1D5E0BB4A6B
:101B2800934200D1F8E05146420FC9000A43802190
:101B380009041143C2009146B54A8A469D180023FC
:101B4800984602933C037B00FA0F3000240B5B0D90
:101B5800009200D196E0AD4A934231D0720FE40072
:101B68002243802424041443A94AF0009446634481
:101B78005B195A1C0192424600260A2A42DC5A4640
:101B880000994A4093464246022A32DC013A012A29
:101B980000D949E1022E00D1CAE0012E3DD100232F
:101BA8000024002210005A461B052343D207134382
:101BB800190007B0F0BCBB46B246A946A046F0BD26
:101BC800924B2643EB18002E00D1BBE0032241467E
:101BD80011435A46884600994A40802109018C469B
:101BE80029006144019141460A2900DD33E2934608
:101BF8000326424601279740A6213A00C9000A4019
:101C08000F4231D0029E022E00D135E2032E00D1C0
:101C1800D2E154464846012EC1D0019A7D4B9446E4
:101C28006344002B00DCC0E0420709D00F220240C9
:101C3800042A05D0021D8242804140422418100027
:101C4800E20106D5744B019A1C4080239446DB00C0
:101C58006344724A93426BDC6207C00864025B0506
:101C68000243240B5B0D9DE7902189000F4263D14D
:101C780088223A4200D1D7E0009BA2469B46814683
:101C88000296BFE72300334300D17FE0002C00D148
:101C9800ADE1200000F0EEFE020003000B3A1D202B
:101CA8001900821A30000839D0408C4004433000B3
:101CB80088405B4AEB1A944663445A1C0192424698
:101CC80000260A2A00DC5AE79CE753460343994654
:101CD80054D05346002B00D177E1504600F0CAFE9D
:101CE8000B235B429C46020084441100504608398D
:101CF80088401D23804660461B1A2000D8400300F8
:101D0800404603439A4623008B4099460023444D9E
:101D18009846AD1A029315E752460243914626D1DA
:101D280000221D000223924608329046029309E7DA
:101D380000240022354B35E7002380249B462403EA
:101D4800324B2FE70222414611438022120194466A
:101D58002A006244884601920A2900DD52E75A4661
:101D68000020009904004A40934602260BE70C2203
:101D78001D000323814690460293E3E600239A461A
:101D880004339846033B00250293DBE642460133C1
:101D98001A432B0090465A1C019242460024002008
:101DA80001260A2A00DCEAE62CE70122D21A382AA0
:101DB80000DDF4E61F2A00DC2AE11F214942CB1A84
:101DC8002100D9400B00202A05D0164A019D9446CF
:101DD8006544AC402043421E904118430723190034
:101DE8000024014003420CD00F230340042B00D1F0
:101DF80040E1031D8342A441180064426107640264
:101E0800240BC20800230A43CCE6C046FF070000A3
:101E180001FCFFFFFF030000FFFFFFFEFE070000BD
:101E28000DFCFFFF3E04000049464A460904090C20
:101E38000D00160C020C0004000C4543AC460500CE
:101E48007543A84615000F007543009202952A00B5
:101E5800009D6F4365462D0CA94647444F44B8453D
:101E680005D91500802252029046454402953D0C42
:101E7800039565462D043F042D0CAC463D00654492
:101E88000495250C2404240CAC4625007543A8466B
:101E980065460F006943414489466743390C494404
:101EA8006E43884503D980225202904646440D0C61
:101EB800A846350045440595039D3F04A8463F0CB8
:101EC8000904C91988444546039555462E04360C1D
:101ED8002F0C35004543784381463800A8462D0C21
:101EE800AA46009A504372434A445244914503D942
:101EF80080256D02A9464844150CA94645462D047F
:101F08002D0CA84665467D43120448449044A946D2
:101F18003200654662436E437C43170C3619BF197D
:101F2800BC4203D980246402A446E144029C039E77
:101F3800A446059D66448E428941AC4612043C0481
:101F4800120CA2186244494254184644A446464515
:101F5800A44182466442A046AA4292418C458941E6
:101F6800E244D044494252420A43A045A441824532
:101F78008941644249420C4341463F0CD219121927
:101F8800CC0D049970020843411E884141464A44D9
:101F9800F60D52023043490214430843D20135D5A5
:101FA8000122430802401343E0071843640834E65B
:101FB800009BA2469B4681468024534624031C432B
:101FC80024034A462E4B240BECE500F053FD152361
:101FD8009C4684440200634620321C2B00DC84E6C5
:101FE800002399462300083883409A468EE600F07D
:101FF80041FD02000300153220331C2A00DC4EE6A6
:1020080002003400083A0020944052E6019304E6A6
:102018001C4B21009C460300019DD3406544A94008
:1020280019430300AB40581E834119430800D440AC
:102038004B0709D00F230B40042B05D00B1D8B42F7
:102048008041404224181800230200D4D6E6012318
:1020580000240022A6E50F29AAD1802352461B039B
:102068001A42A9D01C42A7D11C43009B02009B46E0
:10207800034B97E50024C1E60024014B220091E5BB
:10208800FF0700001E040000F0B54E464546DE4638
:102098005746E0B585B0009001910C034F00CE0F74
:1020A800610A009CB046640F0C4300997F0DC8007C
:1020B80011001A001B039C460091019251004B0D20
:1020C8009946019B009DD90F63466A0F5B0A13432B
:1020D800EA0094469346C14A03900293914500D181
:1020E800CDE0012569404D467D1BAA468E4200D1B0
:1020F80080E0002D00DC35E34946002900D1DFE00F
:10210800974200D194E152460125382A19DC8022F1
:10211800029B12041343029352461F2A00DDE3E197
:10212800534620226146029DD21A9540D9400D435C
:10213800614691400A00511E8A411543029ADA40CD
:10214800A41A451BA84280414042241A230200D405
:102158003DE16402640A002C00D147E1200000F050
:1021680089FC0300083B20212800CA1AD0409C4063
:1021780002009D4022439F4200DD77E1D81B0130D9
:10218800091A2C008D40C4406B1E9D411300C240AB
:102198008B402543002714001D436B0709D00F23EC
:1021A8002B40042B05D02B1DAB42AD416D42641969
:1021B8001D00230200D440E1884A0137974200D12C
:1021C80001E1012643468649ED0821404A072A4392
:1021D8007C054D022D0B640D1E4024052C43F6078B
:1021E80034431000210005B0F0BCBB46B246A946F6
:1021F800A046F0BD002D00DCD0E24946002900D001
:10220800D4E06146029B194300D12BE1691E012DE0
:1022180000D1D9E1954200D10AE10125382917DC1E
:102228008A4653461F2B00DDE7E12022D21A029B83
:10223800614693401D005346D940634693401A00B7
:102248000D43511E8A4153461543029ADA40A41899
:102258002D188542804140422418230200D4B6E05C
:102268005E4B01379F4200D1ADE001215C4B6A080B
:102278001C4029400A43E507154364088DE7594A7D
:10228800029B92466246BA441A432CD08E422ED004
:102298005246002A60D0002F00D1DBE063460E00D2
:1022A800029CD80862070243E4081300234300D1C4
:1022B80054E280252D0325432D03484C2D0B8CE734
:1022C8006146029B194300D1CCE029000139012D58
:1022D80000D188E1954200D1AAE00125382900DD26
:1022E8002FE78A4618E7012251408E42D0D1534643
:1022F800002B00D1BEE0002F00D038E1CA462200F2
:10230800024300D1E2E15346591E012B00D10DE2F0
:10231800324A924500D1D2E10127382913DC1F291E
:1023280000DDEEE12022029B521A250007009A46A2
:10233800CC4090409540CF40A244421E9041534625
:102348002F43074302933D00654465459241029B34
:1023580052424F46D41880E7234A7D1C154200D0CC
:10236800AAE062462500029B05431A43002F00D0CD
:10237800F5E0002D00D16BE1002A00D152E163465F
:10238800C51A029BE21AA8429B415B42D31A1A0261
:1023980000D4D5E163461D1AAC4592410126029B43
:1023A80052421C1B8846A41A0E40F6E697423FD0BC
:1023B80052460125382A00DD4AE78022029B120492
:1023C800134302932DE73C000025002205E707236D
:1023D8002B40002B00D0E2E66BE0C046FF07000070
:1023E800FFFF7FFF01F8FFFFFE070000280000F055
:1023F80041FB030018331F2B00DCB4E62A00083821
:1024080082409F4200DDB9E0DB1B581C1F2800DC1E
:10241800A0E115001F3BDD40202805D040231B1AF2
:102428009A40531E9A411543072300272B40D0E7B3
:10243800C00862070243E40837E7EA0863071A435B
:10244800D34BE4089F4200D12FE72403250B7C05DA
:10245800640DC2E6CA462200024358D163460E0004
:10246800029C0393039B5746DA08E7E7C94CFF1A17
:10247800144092E6C84D7A1C2A4200D084E022001B
:102488000243002F00D0EFE0002A00D1E5E06246C9
:1024980002990A4300D1C5E06346C5188C468542B7
:1024A8008041644440422418230202D5B94B0137C5
:1024B8001C40BA460395D5E76246851AA842924160
:1024C80052429146029BE31A1A004B46D21A130055
:1024D80091461A026CD44A464C462A4300D03AE642
:1024E80000260024002578E6029953460D00203A7C
:1024F800D540202B06D04022D21A0B0093406246CA
:102508001A4393465B465A1E93411D4319E65346A8
:102518005A1E012B00D1C6E09D4EB24500D1BDE642
:1025280088460E000125382A10DC1F2A7FDC20216E
:102538002500891A070088408D40D740D440411EA5
:102548008841029B3D431B1B054302936246551B72
:10255800AC459241029B52424F469C1AF6E5002D2B
:1025680000D0B7E0002A00D1F0E001260E40634613
:102578000298D90842070A43C40896E6854CFF1A10
:1025880014406207E40860E781498A4200D1C9E043
:102598006346C11881428041029B4042E3181B18E0
:1025A800DD075C08072349080D4317002B4010E797
:1025B80063461D1AAC4592410126029B52421C1BE0
:1025C8008846A41A0E40C6E56346C518029B854294
:1025D80080419C464042644424180127230200D4C9
:1025E800F5E6022741E66346C51AA8428041029BE8
:1025F8004042E41A0127241AA8E5029D52462B00FE
:10260800203AD34019005346202B06D04022D21A34
:102618002B00934062461A4393465D466B1E9D41CC
:102628000D4315E66207C0080243E4080DE71100F0
:1026380027002039CF40202A05D040218A1A94400B
:10264800250005430395039D6A1E95413D437DE79B
:10265800002A00D144E701260E406346D908029BB0
:102668005A070A43DC08F0E6002A28D06246029F8F
:10267800C0083A4300D1DCE6620710438022E40830
:102688001203144209D0FD08154206D163460126FB
:102698002C00D8087B0718430E40420FC000C00822
:1026A8005207024301E663461D1AAC459241029B5C
:1026B80052421C1B0E0088460127A41A46E56346B1
:1026C800D908029B5A070A43DC08EEE56346029CD8
:1026D8000393C7E6C008002A00D1AAE662071043A0
:1026E8008022E40812031442D7D0029FFD08154245
:1026F800D3D163460126D8087B072C0018430E4027
:10270800CBE70A002700203AD740202905D04022ED
:10271800521A9440250005430395039D6A1E95416E
:102728002F4310E614000025002256E5029B604462
:102738009946604592414C4452420500A4184CE722
:102748001A001C002A4300D0B3E6C9E680240026FC
:102758002403AEE520210025091A17E500220025EB
:102768000B4C3AE5002D00D1F6E54B46DA1B9246B4
:10277800002F00D16FE6382A05DC80263604344362
:1027880088460E00D1E688460E000125DEE6C046E2
:10279800FF070000FFFF7FFFFE070000002D00D1AC
:1027A80068E64B46D91B002F01D18A46A7E50127C9
:1027B800382900DDC7E5802212041443AFE5C0467E
:1027C8000B00020070B5164D0C0382B049000020C2
:1027D80000920193240B490DDE0FA94204DD114834
:1027E800814203DD104BF01802B070BD8020400319
:1027F80020430E4C641A1F2C08DD0D4B5B1AD84081
:1028080003005842002EEFD11800EDE7094B009A5B
:102818009C46030061448B40E2401343F1E7C04605
:10282800FE0300001D040000FFFFFF7F33040000CB
:1028380013040000EDFBFFFF70B5002816D0C31786
:10284800C5185D40C40F280000F014F9104B1B1A7E
:102858005B055B0D0A2814DC02002E001532964039
:102868000B22121AD5402D032D0B03E00024002360
:10287800002500261B052B43E407234330001900DD
:1028880070BD0B3885402D0300262D0BF2E7C0469E
:102898001E04000010B5041E10D000F0EBF80E4B1B
:1028A8001B1A5B055B0D0A280FDC0B222100121A8C
:1028B800D14015300A038440120B01E000230022A6
:1028C8001B0513432000190010BD22000B3882405D
:1028D80012030024120BF3E71E04000070B5420235
:1028E8004300C40FFE201B0E591C550A08420CD089
:1028F800E02189008C466D07120B63441B051343C6
:10290800E40723432800190070BD002B14D1002DC3
:102918001BD0280000F0AEF80A281CDC0B232A0084
:102928001B1ADA40030015339D400E4B12031B1A85
:102938005B05120B5B0DE1E7002D09D0130B80221C
:1029480012031A436D07084BD8E700230022D5E786
:102958000022054BD2E703002A000B3B9A400025D2
:10296800E3E7C04689030000FF070000F0B54B000D
:102978000F035B0D3B4C450F83B07F0A5E1C2F4352
:1029880000900191CA0FC50026420BD036495C1849
:10299800FE2C13DDFF200023C0051843D207104387
:1029A80003B0F0BD002B02D100200023F4E73D4323
:1029B800F0D08023DB03FF203B43EDE7002C14DD40
:1029C800009BFF009B01581E8341690F3B430B434B
:1029D800590741D00F211940042928D0043359013F
:1029E80025D501340023E0B2D6E721001731DBDB1F
:1029F80080211E2009043943001B1F281BDD0226E5
:102A08007642341B0E00E6403400202804D01748D4
:102A18008446634499400D432B00591E8B41234340
:102A2800590715D00F2100241940042917D19B01FB
:102A38005B0AE0B2B0E70E4C1C192B00A540C3405E
:102A4800A140681E854129430B4300245907C1D181
:102A58009B0100205B0A9FE7DB08E0B29CE7043398
:102A6800E5E7C046FE07000080FCFFFFA2FCFFFF71
:102A780082FCFFFF1C2101231B04984201D3000C98
:102A880010391B0A984201D3000A08391B099842D9
:102A980001D30009043902A2105C40187047C046EF
:102AA800040302020101010100000000000000000F
:102AB800F0B5D6464F464646C0B504000D00100096
:102AC800190082B0002D00DA87E0002B0BDB16001E
:102AD8001F00AB4219D90020002102B0E0BCBA4661
:102AE800B146A846F0BD002746428F41AF4204D800
:102AF80000D082E0A64200D87FE0002000218FE0CD
:102B0800002746428F419F42E5D8AF4200D198E066
:102B1800002399463900300000F0BCF880462900AF
:102B2800200000F0B7F843461B1A9846203B00D512
:102B38007CE0310099409A460B00310040468140C4
:102B48000A00AB425FD85CD05146A41A9D410029C7
:102B580000DA93E0002100200126009001915146FF
:102B68008E400196414601268E4041460096002936
:102B780050D0D90756080E435F084146012200236A
:102B88000CE0AF4201D1A6420AD8A41BBD412419CA
:102B98006D410139A4185D41002906D0AF42F0D932
:102BA800013924196D410029F8D10098019953463B
:102BB80000196941002B48DB2E002C00DE404346FB
:102BC800DC405346002B50DB34009C402300444635
:102BD800A6403200801A99411EE000236242AB41B0
:102BE80014001D0000298BDB06000F00994200D954
:102BF80071E702D1904200D96DE701235B42994603
:102C080088E7A142A0D90021002000900191414607
:102C18000029AED1009801994B46002B00D15CE702
:102C280003000C0000215842A14156E742463800F3
:102C38009A462023310090409B1AD94003000B4349
:102C48007BE7A64200D863E745E7424620239B1A64
:102C58002A009A40260013004246D6402C001E4304
:102C68004346DC405346002BAEDA4246202335006B
:102C780094409B1ADD4023002B43A8E741462026B9
:102C88000127761A00200021F74000900191019752
:102C980068E7C04610B5002903D1FFF7EBFE2030E6
:102CA80002E00800FFF7E6FE10BDC046294A136897
:102CB80007218B43136028490A68284B1A40802350
:102CC8009B0013430B60264B1A6826490A401A607A
:102CD8001A6825490A401A601A6824490A401A6085
:102CE8001A6823490A401A601968802252000A4368
:102CF8001A6019008022D2000B681342FCD0184BCE
:102D08001A681C490A401A609A681B490A409A6066
:102D18009A681A490A409A609A6807218A439A6011
:102D28009A6831318A439A60D96D802252020A43E7
:102D3800DA65DA6D0D490A40DA65D96D104A114035
:102D4800802292000A43DA65D96D802212020A4372
:102D5800DA6570470020024000700040FFF9FFFF6D
:102D680000100240FFFFFFFEFFFFF7FFFFFFFEFF1F
:102D7800FFFFFBFFFFC7FFFFFFF0FFFFFF8FFFFF16
:102D8800FFFCFFFF00B585B00C22002101A80CF064
:102D980053FA1A481A4B03608023DB05436000236B
:102DA8008360C360036104224261033A027642767B
:102DB8008376C2611F328354436283620C32835428
:102DC8000363253A4263826335328354C36409F04E
:102DD800A5F900280CD10B4B019300230293039310
:102DE800064801A909F018FB002804D105B000BD68
:102DF80003F03EFEEFE703F03BFEF7E7FC000020A0
:102E0800002401404000001810B588B004001422C6
:102E1800002103A80CF010FA104B22689A4201D046
:102E280008B010BD0E4B1A6C802149030A431A647E
:102E38001A6C0A400192019A596B01221143596395
:102E48005B6B1A400292029B402303933D3B049321
:102E5800A02003A9C0050AF00DF8E1E7002401400D
:102E68000010024010B5084B02689A4200D010BD0D
:102E7800064A136C06490B401364A0204021C00584
:102E88000AF0E4F8F3E7C0460024014000100240CD
:102E9800FFFFEFFF10B50948094B036000230371DA
:102EA8004371436183610133036209F041FF0028E4
:102EB80000D110BD03F0DCFDFBE7C0466001002037
:102EC8000030024082B0084B02689A4201D002B03A
:102ED8007047064B9A6B802149010A439A639B6BA2
:102EE8000B400193019BF2E70030024000100240C2
:102EF800F0B5CE46474680B589B01422002103A814
:102F08000CF09AF9364B5A6B022632435A635A6BC5
:102F180032400092009A5A6B012422435A635A6B3A
:102F280022400192019A596B0422114359635B6B49
:102F38001A400292029BA023DB05984600229A21A0
:102F480018000AF00FF9274D0022032128000AF083
:102F580009F9C2239B00039300270497059403A94A
:102F6800280009F087FF1A23039304940597173B59
:102F78009946069303A9404609F07CFF80230393F2
:102F880004940597069603A9404609F073FF4B463B
:102F9800039304940597069603A9280009F06AFF8D
:102FA8008423039384239B030493059403A9280093
:102FB80009F060FF00220021062009F0EFFD06203D
:102FC80009F01EFE00220121072009F0E7FD072075
:102FD80009F016FE09B0C0BCB946B046F0BDC046FF
:102FE800001002400004005010B51448144B036050
:102FF800144B4360002383600122C2600361436174
:103008008361C36103620AF0A9FA00280CD10B4856
:1030180000210AF039FF002809D1084800210AF0E8
:103028005FFF002806D110BD03F022FDEFE703F093
:103038001FFDF2E703F01CFDF5E7C046D8010020AC
:1030480000540040583D500010B51448144B03601C
:10305800144B4360002383600122C2600361436113
:103068008361C36103620AF079FA00280CD10B4826
:1030780000210AF009FF002809D1084800210AF0B8
:103088002FFF002806D110BD03F0F2FCEFE703F094
:10309800EFFCF2E703F0ECFCF5E7C0468401002002
:1030A80000580040583D500010B590B0040014225C
:1030B80000210BA80CF0C0F81C22002104A80CF079
:1030C800BBF823682A4A934204D02A4A93422ED056
:1030D80010B010BD2023049304A80AF059FF00285B
:1030E80022D1254C626B01231A436263626B134041
:1030F8000093009BC023DB000B9312230C93002347
:103108000D9303330E9303330F93A0200BA9C0052F
:1031180009F0B0FEE36B802292031343E363E36B91
:1031280013400193019BD3E703F0A2FCD9E7124CAB
:10313800626B01231A436263626B13400293029B22
:10314800C0235B010B9312230C930F3B0E930333A5
:103158000F93A0200BA9C00509F08CFEE36B802219
:10316800D2031343E363E36B13400393039BAFE77B
:10317800005400400058004000100240BFF34F8F39
:10318800034B044ADA60BFF34F8FC046FDE7C046E1
:1031980000ED00E00400FA0510B508F08BFF0E4BB7
:1031A8001B68C01AFA235B00984207D20B4B1B78A6
:1031B800002B0DD00A4BE6225A6310BD074A13783C
:1031C80001214B40137008F075FF034B1860EDE7C1
:1031D800034B00225A63F0E7EC020020F8020020BB
:1031E8000004004070B582B0B74B01221A7007F096
:1031F80089F9002800D18EE0B44800210BF024FDA5
:10320800B34BB44A12685200D25AB34B5A63AE4B0E
:103218001B78002B00D0ADE0FA24A400200008F0B1
:103228004FFFAE4B00225A63200008F049FFAC4C18
:1032380004222100002007F0ADFA08F03DFA08F05A
:10324800FBFA2368D02B61D0A64CA74A012501952B
:10325800009523000021002008F058FDA34A01959D
:10326800009523000B21002008F050FD08F0E4FA37
:103278009F4808F025FF07F053F99E4904220020D3
:1032880007F044FA002800D183E095490422002081
:1032980007F080FA002800D1C8E0974904220820E6
:1032A80007F034FA95490422102007F02FFA9449C0
:1032B8000122282007F02AFA92490422182007F050
:1032C80025FA91490422202007F020FA8F4901228B
:1032D800302007F01BFA8E490422402007F016FA26
:1032E8008C490122382007F011FA08F0E5F97D4BE6
:1032F800894A0121019100910021002008F006FD72
:1033080008F09AFAFA20C00008F0DAFE834809F0BB
:1033180061FB02B070BD6D4800210BF095FC6C4B51
:103328006C4A12685200D25A6B4B5A63664B1B7830
:10333800002B07D1694B00225A636D4808F0C0FE84
:10334800FFF71CFF674C764A01250195009523007D
:103358002B21002008F0DAFC724A01950095230021
:103368003621002008F0D2FC08F066FA564B0022FD
:103378001A70DFE75B4B6C4A0121019100913531EE
:10338800002008F0C3FC08F057FA4F4B00221A70CF
:1033980042E708F091F9534D644A012401940094DE
:1033A8002B000021080008F0B1FC614A0194009448
:1033B8002B000B21002008F0A9FC5E4A0194009420
:1033C8002B001521002008F0A1FC5B4A0194009411
:1033D8002B002021002008F099FC584A0194009401
:1033E8002B002B21002008F091FC08F025FA544C02
:1033F800802676008025AD008021200009F0ACFEF3
:103408000128F9D02900200009F0A6FE0128F3D0F0
:103418003100200009F0A0FE0128EDD0082120008D
:1034280009F09AFE0128E5D0FFF7A8FE08F044F954
:103438002C4D3E4A0124019400942B0000210800E1
:1034480008F064FC3F4A019400942B000B210020F3
:1034580008F05CFC3C4A019400942B0015210020E4
:1034680008F054FC344A019400942B0020210020D9
:1034780008F04CFC314A019400942B002B210020C9
:1034880008F044FC08F0D8F92D4C802676008025F9
:10349800AD008021200009F05FFE0128F9D0290045
:1034A800200009F059FE0128F3D03100200009F06E
:1034B80053FE0128EDD00821200009F04DFE012817
:1034C800E5D0FFF75BFEC04643030020C0040020A0
:1034D800E80E010854000020002C014000040040C0
:1034E800C803002074000020C8040108E80401088B
:1034F80088130000E40E01080803002004030020DC
:103508002103002000030020FC02002020030020EB
:1035180058000020CA020020B0050108FC00002065
:1035280084040108A4040108AC0401080C0501087E
:103538002805010848050108680501088C050108E7
:1035480000040050C4050108E0050108F0B587B083
:10355800A025ED0501228021280009F003FE774C03
:1035680001220121200009F0FDFD01220221200095
:1035780009F0F8FDC82008F0A3FD714807F006FD22
:10358800C82008F09DFD07F031FF08F095F808F015
:1035980053F901228021280009F0E4FD01220121CC
:1035A800200009F0DFFD01220221200009F0DAFDE8
:1035B800FA20800008F084FD04A8624B020012CBB8
:1035C80012C207F0F5FD002814D1052602AC5D4DA6
:1035D80023002A0003CA03C3200007F0E9FDC8201E
:1035E80008F06EFD013E002EF2D104A807F0E0FDC0
:1035F80000282ED0544C200007F02EF920002C383B
:1036080076238384514B8362210007F02FF9002829
:103618001BD105254C4E34002C3C4C4F300007F094
:103628001BF97623A384A7623100200007F01EF956
:10363800C82008F045FD013D002DEFD142490800A2
:103648002C3807F013F9002842D0FFF7CBFD07B05C
:10365800F0BD02A83B4B020012CB12C207F0A8FD36
:103668000028C7D13A4800210BF0EEFA394B3A4A04
:1036780012685200D25A394B5A6308F01DF8384D77
:10368800384A0124019400942B000021080008F016
:103698003DFB354A019400942B000B21002008F0D3
:1036A80035FB324A019400942B001521002008F0C4
:1036B8002DFB2F4A019400942B002021002008F0B4
:1036C80025FB08F0B9F82B4808F0FAFCFFF756FD7F
:1036D8001F4800210BF0B8FA1E4B1F4A126852000F
:1036E800D25A1E4B5A6307F0E7FF1D4D224A0124A8
:1036F800019400942B000021080008F007FB1A4AE7
:10370800019400942B000B21002008F0FFFA174ABF
:10371800019400942B001521002008F0F7FA174AAD
:10372800019400942B002021002008F0EFFA08F003
:1037380083F8104808F0C4FCFFF720FD000400508F
:10374800D8010020C0030108C00200208401002025
:10375800C0040020E80E010854000020002C01409D
:103768006C0000200406010824060108440601082C
:10377800640601081027000084060108A406010851
:10378800F0B5CE46474680B583B007F050FCF34B02
:103798001860F34B1B68984245D1F24DF24CF34840
:1037A8002A00210007F036FDF14E2868FDF7B2FC2B
:1037B80030602068FDF7AEFC0200EE4D2860EE4C4C
:1037C800EE4821000BF0CCFC3268ED4821000BF0EC
:1037D800C7FC2B68092B00DD9FE000D80DE11A001B
:1037E800093200D34AE128331E2B00D87EE1E54A8E
:1037F8000124019409230093023B0C215A2008F06C
:1038080003F9E14DE14A019400942B000C21622058
:1038180008F07CFADE4A019400942B000C217720F2
:1038280008F074FAB0E0CE4B186007F0F2FBD94DFF
:10383800286007F0F5FB0400D74B18602E683000AD
:10384800FFF728F8D54AD64BFEF756F9FCF7D4FD12
:103858000500D44B1860D44B98460A213000FCF779
:10386800E3FC43461960D14F2000FFF713F8CB4A19
:10387800CB4BFEF741F9FCF7BFFD3860CC4E0A216F
:103888002000FCF7D1FC3160BB4CCA4B2A00210058
:10389800994618000BF064FC43461A68C64B210091
:1038A800984618000BF05CFC3A68C44F21003800B9
:1038B8000BF056FC3268C24E210030000BF050FC71
:1038C800C04D0124019400942B004A460C2100208D
:1038D80008F01CFA019400942B0042460C21112098
:1038E80008F014FAB84A019400942B000A21222007
:1038F80008F00CFA019400942B003A000C213220B5
:1039080008F004FA019400942B0032000C214320A3
:1039180008F0FCF907F090FF3FE79A4A0124019468
:103928000926009607230C215A2008F06DF8964DB9
:10393800924A019400942B000C21622008F0E6F9C9
:1039480000220D21712007F047FF00270097092367
:1039580004220C21732008F030FB00970623032271
:103968000F21702008F029FB984A0194009607233C
:103978000C21702008F048F8854A019400942B0027
:103988000C21772008F0C2F9794B1B680A3B4F2BB2
:1039980000D8C6E0764B1B68592B00DD1EE1092BC9
:1039A80000DC2EE1734B1B68122B00DDB8E1704B75
:1039B8001B68132B00DC37E1143B412B00D950E185
:1039C800002204215D2007F007FF00220421622065
:1039D80007F002FF002300930533612205215E20D2
:1039E80008F030FA7A4A012301930733009304332D
:1039F80000215A2008F008F84FE1624A0124019496
:103A08000926009607230C215A2007F0FDFF5E4D7A
:103A18005A4A019400942B000C21622008F076F990
:103A280000220D216A2007F0D7FE002700970923FE
:103A380004220C216C2008F0C0FA00970623032208
:103A48000F21692008F0B9FA604A0194009607230B
:103A58000C21692007F0D8FF4D4E019400942B00EB
:103A680032000C21702008F051F9019400942B00C9
:103A780032000C21772008F049F985E7414A0124F2
:103A880001940926009607230C215A2007F0BCFF51
:103A98003D4D3A4A019400942B000C21622008F015
:103AA80035F900220D21712007F096FE00270097B6
:103AB800092304220C21732008F07FFA00970623BB
:103AC80003220F21702008F078FA404A01940096EA
:103AD80007230C21702007F097FF2D4A01940094CA
:103AE8002B000C21772008F011F94DE7254A012415
:103AF80001940925009507230C215A2007F084FF1B
:103B0800214B1E4A019400940C21622008F0FEF813
:103B18002E4A0194009507230C21772007F074FFA3
:103B280032E72C4A0124019409230093023B162111
:103B38005A2007F069FF144D114A019400942B0094
:103B48001621622008F0E2F8234A019400942B0021
:103B58001621702008F0DAF81CE7C046000400209F
:103B6800FC030020C0030020C40300200400002040
:103B7800CC030020D0030020C40601088C030020D9
:103B880084030020341201086C000020C8060108D4
:103B98002C0A010808040020040400209A99999925
:103BA8009999B93FE4030020E0030020DC030020DA
:103BB800D8030020A00300209C03002098030020C5
:103BC8009403002064000020800C01081C120108E6
:103BD800B4110108401201084C000020D84A012401
:103BE800019409230093023B16215A2007F00CFF89
:103BF800D44BD54A019400941621622008F086F827
:103C0800D0E6CF4A0124019409230093023B1621F0
:103C18005A2007F0F9FECB4BCC4A019400941621A8
:103C2800622008F073F8BDE6002204215D2007F049
:103C3800D3FD00220421622007F0CEFD002300936B
:103C48000533612205215E2008F0FCF8C04A0123F3
:103C5800019307330093043300215A2007F0D4FE60
:103C68001BE0002204215D2007F0B6FD002204219C
:103C7800622007F0B1FD002300930533612205217E
:103C88005E2008F0DFF8B24A01230193073300935E
:103C9800043300215A2007F0B7FEAE4BAE4CAF49B3
:103CA800AF48220007F08EF82068FCF78DFBFEF77E
:103CB800C3FDAC4AAC4BFDF7DBFAFEF781FD020011
:103CC800AA4B1860AA49AB4E30000BF049FAAA4A31
:103CD8000124019409230093023B2021592007F075
:103CE80093FEA64D019400942B00320022216220FD
:103CF80008F00CF8A24A019400942B0022217420A9
:103D080008F004F807F060F99E4B18609E4B1B689A
:103D1800984200D0C3E003B0C0BCB946B046F0BD7D
:103D2800133B082B5DD8994B1B68132B1FDD143BE5
:103D3800412B39D8002205215D2007F04DFD0022D6
:103D48000521622007F048FD002300930433612217
:103D580004215E2008F076F88D4A01230193073389
:103D68000093043300215A2007F04EFE95E7002205
:103D780004215D2007F030FD00220421622007F0B5
:103D88002BFD002300930533612205215E2008F0F6
:103D980059F86F4A01230193073300930433002134
:103DA8005A2007F031FE78E7002204215D2007F051
:103DB80013FD00220421622007F00EFD002300936A
:103DC8000533612205215E2008F03CF8604A012392
:103DD800019307330093043300215A2007F014FE9F
:103DE8005BE76A4B1B68132B1FDD143B412B39D84B
:103DF800002204215D2007F0EFFC0022042162204C
:103E080007F0EAFC002300930533612205215E20B8
:103E180008F018F84E4A012301930733009304333E
:103E280000215A2007F0F0FD37E7002204215D2029
:103E380007F0D2FC00220421622007F0CDFC002309
:103E480000930533612205215E2007F0FBFF404AFD
:103E58000123019307330093043300215A2007F00C
:103E6800D3FD1AE7002204215D2007F0B5FC0022EB
:103E78000421622007F0B0FC00230093053361227F
:103E880005215E2007F0DEFF314A01230193073345
:103E98000093043300215A2007F0B6FDFDE63A4BA3
:103EA800186007F098F83B4E306007F086F83A4BF8
:103EB800186007F099F8FDF799F9FEF70FFD374AF2
:103EC800374BFDF719FEFEF751FD364B18603649A2
:103ED8000BF03EFA3549FCF73BFE0CF03DFA344B4B
:103EE8001860344FFCF770FA3860264D2A68204C69
:103EF800314821000BF034F93268304821000BF0CA
:103F08002FF93A682E4821000BF02AF92B68092B63
:103F180000D8EDE01F4B1B68092B00D844E2254B65
:103F28001B68092B50D8234B1B68092B78D91A4BCF
:103F38001A68072A00D9EEE69300224AD3589F460A
:103F4800401201086C000020D0060108C8060108CC
:103F5800B4110108B4030020BC030020B8030020FA
:103F6800940200205F07CE1951AA6040D4030020B4
:103F7800C40601087C0300202812010874000020F0
:103F8800D8060108F4030020EC030020CC0300202D
:103F9800C4110108F8030020F00300207B14AE4789
:103FA800E17A843FB0030020AC0300200000C8423F
:103FB800A8030020E8030020740300206C030020FD
:103FC80064030020EC060108ED4DEE4A012401943B
:103FD80000942B002621002007F098FEEA4E019459
:103FE80000942B00320026210F2007F08FFEE74AAD
:103FF800019400942B002621172007F087FE0194D6
:1040080000942B0032002621262007F07FFEE04A8C
:10401800019400942B0026212E2007F077FE86E7D6
:10402800D74DD84A0124019400942B002621002062
:1040380007F06CFED44E019400942B003200262128
:104048000F2007F063FED14A019400942B0026212B
:10405800172007F05BFE019400942B003200262104
:10406800262007F053FECB4A019400942B0026210A
:104078002E2007F04BFEC64A019400942B002621FF
:10408800352007F043FE52E7BD4DBE4A0124019496
:1040980000942B002621002007F038FEBA4E019428
:1040A80000942B00320026210F2007F02FFEB94A7A
:1040B800019400942B002621172007F027FEB34A0D
:1040C800019400942B0026211E2007F01FFE019466
:1040D80000942B0032002621262007F017FEAC4A58
:1040E800019400942B0026212E2007F00FFE1EE7D6
:1040F800A94B1B68092B00D89DE1A84B1B68092B0D
:1041080041D8A64B1B68092B00D910E79C4DA14E3E
:104118000124019400942B0032002621002007F08E
:10412800F5FD984A019400942B002621072007F0FA
:10413800EDFD954F019400942B003A0026210F20A5
:1041480007F0E4FD914A019400942B0026211720E2
:1041580007F0DCFD019400942B003A00262126206C
:1041680007F0D4FD019400942B00320026212E2064
:1041780007F0CCFD864A019400942B0026213520B7
:1041880007F0C4FDD3E67E4D824A012401940094D1
:104198002B002621002007F0B9FD7A4A01940094EB
:1041A8002B002621072007F0B1FD774E01940094DB
:1041B8002B00320026210F2007F0A8FD734A019436
:1041C80000942B002621172007F0A0FD01940094ED
:1041D8002B0032002621262007F098FD6C4A019416
:1041E80000942B0026212E2007F090FD9FE6644DB9
:1041F800684F0124019400942B003A0026210020E6
:1042080007F084FD5F4A019400942B0026210720C3
:1042180007F07CFD5C4E019400942B0032002621AF
:104228000F2007F073FD019400942B003A0026211B
:10423800172007F06BFD554A019400942B002621A6
:104248001E2007F063FD019400942B003200262104
:10425800262007F05BFD4E4A019400942B0026218E
:104268002E2007F053FD62E6454C4D4A0125019585
:104278000095230026213D2007F048FD494B1A6888
:104288000195009523002621452007F03FFD42E5D2
:104298003B4C434A012501950095230026213D20EA
:1042A80007F034FD3F4B5A680195009523002621FD
:1042B800452007F02BFD2EE5314C394A01250195A3
:1042C8000095230026213D2007F020FD354B9A68F4
:1042D8000195009523002621452007F017FD1AE5D2
:1042E800274C2F4A012501950095230026213D20C2
:1042F80007F00CFD2B4BDA68019500952300262169
:10430800452007F003FD06E51D4C254A01250195CA
:104318000095230026213D2007F0F8FC214B1A695F
:104328000195009523002621452007F0EFFCF2E4D3
:10433800134C1B4A012501950095230026213D2099
:1043480007F0E4FC174B5A690195009523002621D4
:10435800452007F0DBFCDEE4094C114A01250195F4
:104368000095230026213D2007F0D0FC0D4B9A69CB
:104378000195009523002621452007F0C7FCCAE4D3
:104388006C00002074030020E00601086C03002084
:1043980064030020E4060108F8030020E803002075
:1043A800E80601082C0000204A4B1B68092B00D99D
:1043B8006AE6484B1B68092B00D9B8E5464D474AC1
:1043C8000124019400942B002621002007F09EFC74
:1043D800434F019400942B003A0026210F2007F048
:1043E80095FC404E019400942B00320026211720A2
:1043F80007F08CFC3C4A019400942B0026211E20D7
:1044080007F084FC019400942B003A002621262012
:1044180007F07CFC019400942B00320026212E200A
:1044280007F074FC314A019400942B0026213520B2
:1044380007F06CFC7BE5274B1B68092B00D9D6E6F7
:10444800244B1B68092B00D971E5234D254E012407
:10445800019400942B0032002621002007F056FC1E
:104468001E4A019400942B002621072007F04EFCD9
:104478001B4F019400942B003A0026210F2007F0CF
:1044880045FC019400942B0032002621172007F0E8
:104498003DFC154A019400942B0026211E2007F0AC
:1044A80035FC019400942B003A002621262007F0C1
:1044B8002DFC019400942B00320026212E2007F0B9
:1044C80025FC0A4A019400942B002621352007F088
:1044D8001DFC2CE5E80300206C000020740300207C
:1044E800E0060108E40601086C03002064030020CC
:1044F80030B583B0724C734A0125019500952300AD
:104508003621002007F002FC6F4A01950095230030
:104518003621402007F0FAFB6C4B1B78002B41D169
:10452800674C6B4A01950095230036211D2007F042
:10453800EDFB684A0195009523003621382007F0E5
:10454800E5FB624B1B78002B3FD08021624808F0C6
:1045580003FE002843D107F0ADFD604B1B68C01A6D
:10456800C8283CD907F0A6FD5C4B186007F0A4F8F2
:1045780007F098F807F060F907F09CFD584B1860B1
:1045880007F098FD574B1860574B584A126852006D
:10459800D25A574B5A63574B00221A70564B013266
:1045A8001A701CE0464C554A0125019500952300D8
:1045B8003621382007F0AAFB464A019500952300CA
:1045C80036211D2007F0A2FBBBE78021424808F0F6
:1045D800C3FD00281AD03D4B1B78002BB5D107F03E
:1045E80069FD3E4B1B68C01AC82806D9802189007E
:1045F800394808F0B1FD00282CD007F05BFD374B97
:104608001B68C01AC8283CD803B030BD07F052FD5B
:10461800324B1B68C01AC828DDD907F04BFD2F4B59
:10462800186007F049F807F03DF807F005F92E4B38
:104638002E4A12685200D25A2D4B5A6307F03AFD9F
:10464800274B186007F036FD264B1860294B0022CF
:104658001A70C4E71D4A137801214B40137007F004
:1046680029FD204B186007F025FD1C4B18601E4BD8
:104678001E4A12685200D25A1D4B5A6307F0DCF8E2
:10468800C2E780214900144808F066FD0028BBD124
:104698000E4A137801214B40137007F00BFD114BA4
:1046A800186007F007FD0D4B18600F4B0F4A126892
:1046B8005200D25A0E4B5A6307F0BEF8A4E7C04620
:1046C8006C0000200C0701081807010841030020AE
:1046D8002C0701082C0A0108000400502C030020B4
:1046E8002803002038030020E80E010854000020A9
:1046F800002C0140280000203F030020300701085B
:1047080070B588B01D4C200008F03AFA200008F077
:10471800DFF8082009F034FC1022002104A80AF070
:104728008BFD174B5A6B022422435A635A6B224063
:104738000192019A596B0122114359635B6B1A402C
:104748000292029B1A2303930594A026F60503A957
:10475800300008F08FFB802303930025049505940F
:1047680003A9300008F086FB03940495059403A977
:10477800044808F07FFB08B070BDC046FC0000206C
:10478800001002400004005030B583B0164D174A9F
:104798000124019400942B000B21082007F0B6FA9D
:1047A800134A019400942B001521082007F0AEFA53
:1047B800104A019400942B002021082007F0A6FA43
:1047C8000D4A019400942B002B21082007F09EFA33
:1047D8000A4A019400942B003621082007F096FA23
:1047E80007F02AF803B030BD6C0000201807010854
:1047F800340701084C0701086C07010888070108FD
:1048080070B582B0CD4B1B78002B09D1CC4B1B68FF
:10481800002B21DB032B22DDC94B00221A601EE08E
:1048280006F0F7FBC74B186006F0FAFBC64B18609A
:1048380006F0CAFBC54B186006F0CDFBC44B1860E8
:1048480006F0D2FBC34B186006F0B7FBC24B1860EA
:10485800BA4B00221A70D9E7B94B03221A60BC4B35
:104868001B68002B05DD0C2B06DDB94B01221A60F5
:1048780002E0B74B0C221A60B64B1B68B74A93424A
:1048880024DDB44B633A1A60AE4B1B68172B25DD49
:10489800AC4B00221A60AC4B1B683B2B24DDAA4BA7
:1048A80000221A60AC4B1B68072B23DDAA4B0122A0
:1048B8001A60A84B1B689B0700D187E1A44B1A68B4
:1048C8000C2A25D89300A64AD3589F46FA22D2002C
:1048D8009342D9DA9F4BA14A1A60D5E7002BDADA5E
:1048E800984B17221A60D6E7002BDBDA964B3B224F
:1048F8001A60D7E7002BDCDC974B07221A60D8E751
:10490800924B1B681F2B00DC89E0904B01221A6038
:10491800944B1B68022B00DC15E2924B02221A60B2
:10492800914B1B68042B00DC14E28F4B04221A60A5
:10493800844D2A688D4C8E4821000AF011FC824B68
:104948001A688C4821000AF00BFC804B1A688A48C8
:1049580021000AF005FC7E4B1A68884821000AF0FD
:10496800FFFB7C4B1A68864821000AF0F9FB2B688C
:10497800092B00DD19E2744B1B68092B00DCF0E100
:10498800804D814A0124019400942B000B210820BA
:1049980007F0BCF9764A019400942B000B210F20F4
:1049A80007F0B4F9734A019400942B000B211F20DF
:1049B80007F0ACF9654B1B68092B00DD53E2644B2B
:1049C8001B68092B00DC22E26E4D6F4A012401941A
:1049D80000942B001521082007F098F9664A0194E5
:1049E80000942B0015210F2007F090F9634A0194D9
:1049F80000942B0015211F2007F088F9604A0194C4
:104A080000942B001521362007F080F9524B1A68C4
:104A1800072A00D98DE293005C4AD3589F46002BA1
:104A280000DD75E7494B1F221A6071E7474B1B6889
:104A38001C2B03DD454B01221A6069E7002B00DDC2
:104A480066E7424B1C221A6062E7404B1B681F2B2B
:104A580003DD3E4B01221A605AE7002B00DD57E7C1
:104A68003A4B1F221A6053E7384B1B681E2B03DD95
:104A7800364B01221A604BE7002B00DD48E7334B29
:104A88001E221A6044E7314B1B681F2B03DD2F4B96
:104A980001221A603CE7002B00DD39E72B4B1F226F
:104AA8001A6035E7294B1B681E2B03DD274B0122B3
:104AB8001A602DE7002B00DD2AE7244B1E221A601E
:104AC80026E7224B1B681F2B03DD204B01221A60AF
:104AD8001EE7002B00DD1BE71C4B1F221A6017E79F
:104AE8001A4B1B681F2B03DD184B01221A600FE7B6
:104AF800002B00DD0CE7154B1F221A6008E7134B4B
:104B08001B681E2B03DD114B01221A6000E7002BE6
:104B180000DDFDE60D4B1E221A60F9E60B4B1B6803
:104B28001F2B03DD094B01221A60F1E6002B00DD83
:104B3800EEE6064B1F221A60EAE6C0462000002077
:104B4800D8020020E0020020DC0200201C00002027
:104B58001800002010000020140000203308000076
:104B6800F8070108D4020020D0020020A407010899
:104B78006C020020640200205C0200205402002025
:104B88004C0200206C000020E40601082C080108F3
:104B9800C44B1B681E2B03DDC24B01221A60B7E60B
:104BA800002B00DDB4E6BF4B1E221A60B0E6BD4BF9
:104BB8001B681F2B03DDBB4B01221A60A8E6002BE4
:104BC80000DDA5E6B74B1F221A60A1E6B64B1A68AE
:104BD8000C2A00D99CE69300B44AD3589F46B14B9F
:104BE8001B681F2B03DDAF4B01221A6090E6002BD8
:104BF80000DD8DE6AB4B1F221A6089E6A94B1B68C6
:104C08001D2B03DDA74B01221A6081E6002B00DD76
:104C18007EE6A44B1D221A607AE6A24B1B681F2B66
:104C280003DDA04B01221A6072E6002B00DD6FE65F
:104C38009C4B1F221A606BE69A4B1B681E2B03DDE8
:104C4800984B01221A6063E6002B00DD60E6954B65
:104C58001E221A605CE6934B1B681F2B03DD914BE9
:104C680001221A6054E6002B00DD51E68D4B1F220D
:104C78001A604DE68B4B1B681E2B03DD894B012206
:104C88001A6045E6002B00DD42E6864B1E221A60BC
:104C98003EE6844B1B681F2B03DD824B01221A6002
:104CA80036E6002B00DD33E67E4B1F221A602FE626
:104CB8007C4B1B681F2B03DD7A4B01221A6027E609
:104CC800002B00DD24E6774B1F221A6020E6754B87
:104CD8001B681E2B03DD734B01221A6018E6002B9C
:104CE80000DD15E66F4B1E221A6011E66D4B1B683E
:104CF8001F2B03DD6B4B01221A6009E6002B00DD38
:104D080006E6684B1F221A6002E6664B1B681E2BDC
:104D180003DD644B01221A60FAE5002B00DDF7E59C
:104D2800604B1E221A60F3E55E4B1B681F2B03DDE8
:104D38005C4B01221A60EBE5002B00DDE8E5594BDE
:104D48001F221A60E4E5002B00DBE9E5584B00223E
:104D58001A60E5E5002B00DBEAE5564B00221A60F5
:104D6800E6E5554D554E0124019400942B00320080
:104D78000B21082006F0CAFF514A019400942B0029
:104D88000B210F2006F0C2FF019400942B00320083
:104D98000B211F2006F0BAFF4A4A019400942B0009
:104DA8000B21262006F0B2FF04E6474B1B68092BAF
:104DB80012DD414C424A01250195009523000B2143
:104DC800082006F0A3FF3F4A0195009523000B2118
:104DD8001F2006F09BFFEDE5374D394A0124019469
:104DE80000942B000B21082006F090FF334A019411
:104DF80000942B000B211F2006F088FF314A0194F4
:104E080000942B000B21262006F080FFD2E52A4DC6
:104E18002A4E0124019400942B0032001521082009
:104E280006F074FF294A019400942B0015210F20E5
:104E380006F06CFF019400942B00320015211F200E
:104E480006F064FF224A019400942B0015212620C5
:104E580006F05CFF1F4A019400942B0015213620B0
:104E680006F054FFD2E5104B1B68092B34DD124DB8
:104E7800164A0124019400942B001521082006F0FD
:104E880045FF134A019400942B0015211F2006F0BA
:104E98003DFF104A019400942B001521362006F09E
:104EA80035FFB3E51C000020180000204C0801085D
:104EB800D4020020D00200206C000020E406010883
:104EC8006C02002064020020DC0200205C0200204A
:104ED800540200204C020020DC4DDD4A01240194DC
:104EE80000942B001521082006F010FFD94A0194E0
:104EF80000942B0015211F2006F008FFD64A0194C4
:104F080000942B001521262006F000FFD34A0194B7
:104F180000942B001521362006F0F8FE76E5CB4BE1
:104F2800CF4A126801210191009114315A2006F0EC
:104F3800EDFEC64CCB4A01250195009523002021A2
:104F4800082006F0E3FEC84A0195009523002B21AE
:104F5800082006F0DBFEC54B1B68022B00D108E1D8
:104F680070DC002B00D194E0012B00D024E1C04B71
:104F78001B78002B00D0D8E0B44DBE4E012401941C
:104F880000942B0032000B21002006F0BFFEBA4A25
:104F9800019400942B001521002006F0B7FE01941F
:104FA80000942B0032002021002006F0AFFE01946F
:104FB80000942B0032002B21002006F0A7FEFBE016
:104FC800A24BA74A526801210191009114315A203D
:104FD80006F09CFEADE79D4BA14A92680121019124
:104FE800009114315A2006F091FEA2E7974B9C4A93
:104FF800D26801210191009114315A2006F086FEF1
:1050080097E7924B964A1269012101910091143158
:105018005A2006F07BFE8CE78C4B914A526901219D
:105028000191009114315A2006F070FE81E7874BF8
:105038008B4A926901210191009114315A2006F09E
:1050480065FE76E7032B00D0B6E0804D894E01243B
:10505800019400942B0032000B21002006F056FE2C
:10506800019400942B0032001521002006F04EFE1A
:10507800019400942B0032002021002006F046FE07
:105088007D4A019400942B002B21002006F03EFE5F
:1050980092E07A4B1B78002B23D16C4D764A012481
:1050A800019400942B000B21002006F02FFE714E76
:1050B800019400942B0032001521002006F026FEF2
:1050C800019400942B0032002021002006F01EFEDF
:1050D800019400942B0032002B21002006F016FECC
:1050E8006AE05A4D664A0124019400942B000B2172
:1050F800002006F00BFE5F4E019400942B00320056
:105108001521002006F002FE019400942B003200C5
:105118002021002006F0FAFD019400942B003200B3
:105128002B21002006F0F2FD46E0484D514E0124A7
:10513800019400942B0032000B21002006F0E6FDBC
:105148004F4A019400942B001521002006F0DEFD43
:10515800019400942B0032002021002006F0D6FD97
:10516800019400942B0032002B21002006F0CEFD84
:1051780022E0364D3F4E0124019400942B0032006A
:105188000B21002006F0C2FD019400942B00320090
:105198001521002006F0BAFD374A019400942B002F
:1051A8002021002006F0B2FD019400942B0032006B
:1051B8002B21002006F0AAFD304B1B78002B15D0C0
:1051C8002B4B1B78002B1BD02E4B1B68012B65D05B
:1051D800022B00D192E0002B2ED02B4B1A68042A08
:1051E80000D9E8E09300294AD3589F46174B284A2C
:1051F8000121019100910A31172006F087FDDFE7B0
:10520800124D244E0124019400942B0032001521E4
:10521800172006F07BFD019400942B003200152125
:105228002E2006F073FD1C4A019400942B001521D2
:10523800522006F06BFDC7E7044B154A0121019186
:1052480000910A31172006F061FDC6E76C000020C6
:105258005C020020E4060108540200204C020020F1
:105268002C000020A8070108C4070108D802002064
:10527800EA0200202C0A010830070108EB0200208E
:10528800D0070108D4020020D002002080080108BD
:10529800800C0108E0060108E8060108304B1B787D
:1052A800002B21D02F4B304A0121019100910A3166
:1052B800172006F02BFD06F0FDFE2C4B1B68C01ACC
:1052C800C8288AD980212A4807F046FF002884D1B7
:1052D80006F0F0FE254B1860214A137801214B4057
:1052E800137006F0A9FA78E71E4B224A01210191B2
:1052F80000910A31172006F009FDDCE71E4B1B78E8
:10530800002B23D0174B184A0121019100910A3133
:10531800172006F0FBFC06F0CDFE144B1B68C01AE4
:10532800C82800D859E78021114807F015FF002840
:1053380000D052E706F0BEFE0C4B18600E4A1378F8
:1053480001214B40137006F077FA46E7054B0B4AEC
:105358000121019100910A31172006F0D7FCDAE704
:10536800E90200206C000020D00701082C0300206F
:10537800000400502C070108E8020020300701084B
:10538800BC4DBD4E0124019400942B003200152120
:10539800172006F0BBFC019400942B003200152165
:1053A8002E2006F0B3FCB54A019400942B00152179
:1053B800522006F0ABFC06F07DFEB14B1B68C01A0C
:1053C800C82828D980218900AE4807F0C5FE0028E2
:1053D80021D1AD4B1B78002B1DD1AC4B1B78002B7A
:1053E80019D1AB4B1B78002B15D1AA4B1B78002B7E
:1053F80011D1A94B1B78002B0DD1A84B1B78002B82
:1054080009D1A74B1B78002B05D1A64B1B78002B85
:1054180001D100F0B5FC06F04DFE994B1B68C01A8F
:10542800C82828D980214900964807F095FE002809
:1054380021D1954B1B78002B1DD1944B1B78002B49
:1054480019D1934B1B78002B15D1924B1B78002B4D
:1054580011D1914B1B78002B0DD1904B1B78002B51
:1054680009D18F4B1B78002B05D18E4B1B78002B55
:1054780001D100F090FC06F01DFE814B1B68C01A9C
:10548800C82828D9802149007E4807F065FE0028F1
:1054980021D17D4B1B78002B1DD07C4B1B78002B1A
:1054A80019D17B4B1B78002B15D17A4B1B78002B1D
:1054B80011D1794B1B78002B0DD1784B1B78002B21
:1054C80009D1774B1B78002B05D1764B1B78002B25
:1054D80001D100F06BFC06F0EDFD694B1B68C01AAA
:1054E800C82828D980218900664807F035FE002899
:1054F80021D1654B1B78002B1DD0644B1B78002BEA
:1055080019D1634B1B78002B15D1624B1B78002BEC
:1055180011D1614B1B78002B0DD1604B1B78002BF0
:1055280009D15F4B1B78002B05D15E4B1B78002BF4
:1055380001D100F046FC06F0BDFD514B1B68C01AB6
:10554800C82828D9802149004E4807F005FE0028C0
:1055580021D14D4B1B78002B1DD14C4B1B78002BB8
:1055680019D04B4B1B78002B15D14A4B1B78002BBD
:1055780011D1494B1B78002B0DD1484B1B78002BC0
:1055880009D1474B1B78002B05D1464B1B78002BC4
:1055980001D100F021FC06F08DFD394B1B68C01AC3
:1055A800C82828D980218900364807F0D5FD002869
:1055B80021D1354B1B78002B1DD1344B1B78002B88
:1055C80019D0334B1B78002B15D1324B1B78002B8D
:1055D80011D1314B1B78002B0DD1304B1B78002B90
:1055E80009D12F4B1B78002B05D12E4B1B78002B94
:1055F80001D100F0FCFB06F05DFD214B1B68C01AD1
:10560800C82827D9802149001E4807F0A5FD002891
:1056180020D11D4B1B78002B1CD01C4B1B78002B5A
:1056280018D11B4B1B78002B14D01A4B1B78002B5E
:1056380010D1194B1B78002B0CD1184B1B78002B61
:1056480008D1174B1B78002B04D1164B1B78002B65
:1056580000D1D7E306F02EFD094B1B68C01AC828F5
:1056680043D980218900074807F076FD00283CD1FE
:105678001AE0C0466C000020E0060108E8060108B0
:105688002C03002000040050EB020020EA02002056
:10569800E9020020E8020020E7020020E6020020DC
:1056A800E5020020E4020020B34B1B78002B1CD03D
:1056B800B24B1B78002B18D1B14B1B78002B14D0A0
:1056C800B04B1B78002B10D1AF4B1B78002B0CD1A3
:1056D800AE4B1B78002B08D1AD4B1B78002B04D1A7
:1056E800AC4B1B78002B00D197E306F0E3FCAA4BE8
:1056F8001B68C01AC82827D980214900A74807F085
:105708002BFD002820D19C4B1B78002B1CD09B4BD9
:105718001B78002B18D19A4B1B78002B14D1994B6E
:105728001B78002B10D0984B1B78002B0CD1974B73
:105738001B78002B08D1964B1B78002B04D1954B76
:105748001B78002B00D173E306F0B4FC924B1B6866
:10575800C01AC82827D980218900904807F0FCFC86
:10576800002820D1844B1B78002B1CD0834B1B783E
:10577800002B18D1824B1B78002B14D1814B1B783E
:10578800002B10D0804B1B78002B0CD17F4B1B7843
:10579800002B08D17E4B1B78002B04D17D4B1B7846
:1057A800002B00D14FE306F085FC7B4B1B68C01A29
:1057B800C82827D980214900784807F0CDFC00285F
:1057C80020D16D4B1B78002B1CD16C4B1B78002B08
:1057D80018D06B4B1B78002B14D16A4B1B78002B0D
:1057E80010D1694B1B78002B0CD0684B1B78002B11
:1057F80008D1674B1B78002B04D1664B1B78002B14
:1058080000D12BE306F056FC634B1B68C01AC8286E
:1058180027D980218900614807F09EFC002820D103
:10582800554B1B78002B1CD1544B1B78002B18D0E0
:10583800534B1B78002B14D1524B1B78002B10D1E3
:10584800514B1B78002B0CD0504B1B78002B08D1E8
:105858004F4B1B78002B04D14E4B1B78002B00D1EB
:1058680007E306F027FC4C4B1B68C01AC82827D949
:1058780080214900494807F06FFC002820D13E4BA1
:105888001B78002B1CD13D4B1B78002B18D03C4BB0
:105898001B78002B14D13B4B1B78002B10D13A4BB3
:1058A8001B78002B0CD1394B1B78002B08D0384BB8
:1058B8001B78002B04D1374B1B78002B00D1E3E277
:1058C80006F0F8FB344B1B68C01AC82827D980217A
:1058D8008900324807F040FC002820D1264B1B786D
:1058E800002B1CD1254B1B78002B18D0244B1B7880
:1058F800002B14D1234B1B78002B10D1224B1B7883
:10590800002B0CD1214B1B78002B08D0204B1B7887
:10591800002B04D11F4B1B78002B00D1BFE206F0EF
:10592800C9FB1D4B1B68C01AC8283CD980214900F7
:105938001A4807F011FC002835D10F4B1B78002BB3
:1059480031D10E4B1B78002B2DD00D4B1B78002B23
:1059580029D10C4B1B78002B25D10B4B1B78002B26
:1059680021D10A4B1B78002B1DD1094B1B78002B2A
:1059780019D0084B1B7813E0EB020020EA02002044
:10598800E9020020E8020020E7020020E6020020E9
:10599800E5020020E40200202C030020000400504F
:1059A800002B00D186E206F085FBD74B1B68C01A96
:1059B800C82827D980218900D44807F0CDFB0028C2
:1059C80020D1D34B1B78002B1CD1D24B1B78002B3A
:1059D80018D0D14B1B78002B14D1D04B1B78002B3F
:1059E80010D1CF4B1B78002B0CD1CE4B1B78002B42
:1059F80008D1CD4B1B78002B04D0CC4B1B78002B47
:105A080000D162E206F056FBBF4B1B68C01AC828DB
:105A180027D980214900BD4807F09EFB002820D1E6
:105A2800BB4B1B78002B1CD1BA4B1B78002B18D012
:105A3800B94B1B78002B14D1B84B1B78002B10D115
:105A4800B74B1B78002B0CD1B64B1B78002B08D119
:105A5800B54B1B78002B04D1B44B1B78002B00D01E
:105A68003EE206F027FBA84B1B68C01AC82800D9DD
:105A780041E206F01FFBA44B1B68C01AC82800D9D6
:105A880074E205F0D9FE02B070BDA54B1B78002B5F
:105A980034D0A74DA74A0124019400942B00152166
:105AA800172006F033F9A44A019400942B0015211D
:105AB8002E2006F02BF9A14A019400942B00152101
:105AC800522006F023F906F0F5FA8F4B1B68C01A2E
