:020000040800F2
:1000000000900020858D0008818C0008A58C0008D8
:1000100000000000000000000000000000000000E0
:10002000000000000000000000000000AB8C000891
:100030000000000000000000AD8C0008AF8C00083C
:10004000D58D000800000000B98C0008D58D00088F
:10005000D58D0008D58D0008D58D0008C98C000805
:1000600000000000D58D0008D58D0008D58D000852
:10007000D58D0008D58D0008D58D00080000000042
:10008000D58D0008D58D0008D58D0008D58D0008C8
:10009000D58D0008D58D0008D58D0008D58D0008B8
:1000A000D58D0008D58D0008D58D0008D58D0008A8
:0800B000D58D0008D58D000874
:1000B80010B5064C2378002B07D1054B002B02D036
:1000C800044800E000BF0123237010BDE0000020B9
:1000D8000000000090E90008044B10B5002B03D085
:1000E8000349044800E000BF10BDC04600000000FE
:1000F800E400002090E900080023C25C0133002AD4
:10010800FBD1581E7047000002B4714649084900E7
:10011800095649008E4402BC7047C04602B4714675
:1001280049084900095C49008E4402BC7047C04632
:1001380003B47146490840004900095E49008E44ED
:1001480003BC704703B47146490840004900095A86
:1001580049008E4403BC7047002243088B4274D385
:1001680003098B425FD3030A8B4244D3030B8B42B0
:1001780028D3030C8B420DD3FF22090212BA030CB9
:100188008B4202D31212090265D0030B8B4219D39A
:1001980000E0090AC30B8B4201D3CB03C01A5241BA
:1001A800830B8B4201D38B03C01A5241430B8B4202
:1001B80001D34B03C01A5241030B8B4201D30B03EB
:1001C800C01A5241C30A8B4201D3CB02C01A524112
:1001D800830A8B4201D38B02C01A5241430A8B42D5
:1001E80001D34B02C01A5241030A8B4201D30B02BE
:1001F800C01A5241CDD2C3098B4201D3CB01C01AD8
:10020800524183098B4201D38B01C01A52414309E1
:100218008B4201D34B01C01A524103098B4201D3CF
:100228000B01C01A5241C3088B4201D3CB00C01A3C
:10023800524183088B4201D38B00C01A52414308B4
:100248008B4201D34B00C01A5241411A00D20146D9
:10025800524110467047FFE701B5002000F006F84C
:1002680002BDC0460029F7D076E770477047C04600
:100278008446100062468C461900634600E0C0467A
:100288001FB501F0E5FB002801D40021C8421FBDBD
:1002980010B501F025FB4042013010BD10B501F04A
:1002A800D7FB002801DB002010BD012010BDC0468F
:1002B80010B501F0CDFB002801DD002010BD0120A4
:1002C80010BDC04610B501F04FFB002801DC00202E
:1002D80010BD012010BDC04610B501F045FB002837
:1002E80001DA002010BD012010BDC0468446080078
:1002F8006146FFE71FB500F0FBFB002801D4002191
:10030800C8421FBD10B500F07BFB4042013010BD54
:1003180010B500F0EDFB002801DB002010BD012026
:1003280010BDC04610B500F0E3FB002801DD002039
:1003380010BD012010BDC04610B500F089FB002893
:1003480001DC002010BD012010BDC04610B500F032
:100358007FFB002801DA002010BD012010BDC04637
:10036800002B15D1002A13D1002906DB01DC002857
:1003780006D00020C043410802E080210906002081
:1003880007B4024801A14018029003BDE1FEFFFF37
:1003980003B4684601B5029800F06AF8019B9E46CE
:1003A80002B00CBC7047C046F0B5CE469946030C67
:1003B8009C46130447461B0C1D000E0061460404AE
:1003C800240C80B50700100C4B4365434143604340
:1003D8002C0CC01824188C46A34203D980235B0236
:1003E8009846C444494679435643230C2D042D0CA2
:1003F8008919634424046019C918C0BCB946B046B9
:10040800F0BDC0469E2110B5C905041CFFF79EFF2C
:10041800002803D1201C00F09BFE10BD9E21201C4B
:10042800C90500F0F1FC00F093FE80231B069C46F2
:100438006044F2E770B500220C4B04000D00FFF792
:100448004BFF002804D12000290002F0D7F970BD25
:10045800064B00222000290001F034FE02F0CEF9FC
:1004680080231B069C466044F1E7C0460000E0413B
:10047800F8B5CE46474680B59146984604000D002B
:1004880002F034FB07000E0002000B00484641460C
:10049800FFF78AFF241A8D41089B380031001C6041
:1004A8005D60C0BCB946B046F8BDC046F8B5CE469A
:1004B800474643025A0A4E024500C40F4800914677
:1004C8002D0E720A000E944680B59B09C90FB60915
:1004D8002A1A8C4221D0002A0DDD00282DD1002EA9
:1004E80000D18DE0511E012A00D11DE1FF2A00D163
:1004F800ABE00A0027E0002A4DD0421B002D00D0B7
:10050800CCE0002B00D179E0541E012A00D128E16B
:10051800FF2A00D197E02200C5E0002A00DC96E01F
:1005280000284FD0FF2D00D18FE08021C9040E4351
:100538001B2A51DD2A00013318E0FF2D00D184E089
:100548008021C9040E4301211B2A08DC3100202028
:10055800D140821A96403200501E824111435B1AE4
:100568005A0159D407212A00194049D00F211940AE
:10057800042900D00433590142D5501CFE2A3AD030
:100588009B01C0B25B0AC0051843E4072043C0BC06
:10059800B946B046F8BDFE2080466F1C3800474675
:1005A800074200D08EE0002D00D0B4E0002B00D12F
:1005B800DBE0002E6CD0981B450100D4F7E00C005E
:1005C800F31A3DE0002E1BD0511E012A00D182E013
:1005D800FF2A3AD00A00ABE731002020D140821A26
:1005E80096403200501E82410A439B185A01B9D5E1
:1005F8006A1CFE2D75D1FF200023C4E70C003300D0
:10060800DB08FF2A46D1002BF5D08022D203134302
:100618005B02FF205B0AB6E79F01BF09380002F0C2
:1006280047FA05388740854224DC3B002021421BDD
:100638000132D3408A1A97407A1E974100223B43E1
:10064800590793D197E70C003300DB08DBE7002A52
:1006580014D0421B002D4BD1002BD0D0511E012AA3
:1006680000D19EE0FF2AEFD00A001B2A5FDD0200BE
:10067800731C7BE7504B2A1A3B40E1E7FE216A1CBA
:1006880011423BD1002D5DD1002B7FD0002E7FD1B0
:100698000022DB085B025B0AD0B274E7FF28D2D0E5
:1006A8008024E404234301241B2A07DC1C002025A2
:1006B800D440AA1A93405A1E93411C43331B050089
:1006C8000C004DE79F1B7A0122D4002FA6D10024ED
:1006D8000020002357E79B1901250132590100D456
:1006E80040E70121354819405B0803400B43A7E761
:1006F800FF28A9D08021C9040B43B6E7FF2A00D1FF
:1007080079E79B195B08590700D02FE7DB08C1E799
:100718000C00F71A82E7002B2CD1002E93D18023EE
:100728000024FF20DB032EE701259B1B18E7190097
:100738002025D140AA1A93405A1E93410B43050025
:100748009B1953E7002B00D17EE7002E00D17CE7F0
:100758008022D203914502D3944500D23300DB08AE
:1007680053E70C00F31A0135FAE6002EAFD00C005F
:1007780033008DE7002E00D167E78022D203914530
:10078800EDD39445EBD20C003300E8E733007FE764
:100798009B1900225901B9D5074A1340DB080122E9
:1007A80078E79B190132013559019AD4DAE6031E1C
:1007B8008DD0DB086EE7C046FFFFFFFBFFFFFF7D24
:1007C800F0B54F464646D6464402C0B547000E1C13
:1007D800640A3F0EC50F002F3CD0FF2F42D00023E4
:1007E800802299469A46E400D20414437F3F73025C
:1007F8005B0A984673001B0EF60F002B1BD0FF2BCD
:1008080013D042468021D200C904114388460020F3
:100818007F3B2900FF1A4B467140C9B20F2B00D904
:10082800B5E0744A9B00D3589F464346002B3FD1FE
:10083800FF3F023303E04346002B2DD1012329005B
:100848004A467140C9B21A430E2A38D86A489200FB
:1008580082589746002C13D104239946033B00275E
:100868009A46C4E7002C05D108239946063BFF2782
:100878009A46BCE70C239946093BFF279A46B6E7F8
:10088800200002F015F97627431F9C4000237F4281
:1008980099469A463F1AAAE7404602F009F94246A5
:1008A800431F9A4076235B421B1A90460020B0E70C
:1008B80003234A461A4391460320FC33A9E70D0057
:1008C800FF200022C005ED0710432843E0BCBA46CC
:1008D800B146A846F0BD0D0000200022F2E75346BD
:1008E800022BEDD0032B33D0A046012B05D10020DD
:1008F8000022E7E7350003287AD03B007F33002B3E
:100908002DDD4246520707D00F2241460A40042AED
:1009180002D004229446E0444246120105D54246DC
:10092800364B1A403B0090468033FE2BC8DC4246CB
:100938009201520AD8B2C5E780220025FF20D203CF
:10094800C0E78022D203144202D04346134249D062
:100958008022D20322435202FF20520AB2E7012228
:10096800D31A1B2BC3DC4246DA4043469E37BB40B2
:10097800591E8B411A43530704D00F231340042BED
:1009880000D00432530129D5012000229AE74246BB
:1009980063015501AB4215D21B200022013F0126FD
:1009A8001C0052005B00002C01DB9D4201D85B1B40
:1009B800324301380028F3D1581E83411343984627
:1009C8000D009AE71A2001225B1BE8E7023B5A4216
:1009D80053415B4235000022D8B273E792010020F0
:1009E800520A6FE71A4352023500FF20520A69E79C
:1009F8004446ADE7B0E90008F0E90008FFFFFFF75B
:100A080070B542004E024C0045026D0A120EC30F2B
:100A1800760A240EC90FFF2A10D0FF2C0CD0012013
:100A2800A2420AD1B54208D18B420FD0002A04D184
:100A38002800431E984100E0012070BD0120FF2CD2
:100A4800FBD13543F9D14B401800F6E70020F4E715
:100A580030B5420044024D02C30F4800640A120E2A
:100A68006D0A000EC90FFF2A19D0FF280BD0002AE3
:100A78001ED100280BD1002D27D0002C34D10029FD
:100A88002FD0080030BD002D28D1002A01D1002C1C
:100A9800F5D08B4207D1002B23D01800F2E7002CA9
:100AA8001CD1FF2814D0581E022318400138E9E74A
:100AB8000028F8D08B42F6D18242F4DCEBDBAC4262
:100AC800F1D80020AC42DDD2E5E7002CDAD0EAE725
:100AD800002D03D18B42E6D10020D3E7022040420B
:100AE800D0E701204042CDE78B42E8D0DBE7C046A3
:100AF80030B5420044024D02C30F4800640A120E8A
:100B08006D0A000EC90FFF2A1AD0FF280ED0002A3E
:100B18001ED100280ED1002D2AD0002C0CD08B42DB
:100B28001DD0581E02231840013810E0002D0DD1A9
:100B3800002A20D1002C1ED1002923D0080006E06D
:100B4800002C03D1FF28ECD1002D17D0022030BD96
:100B58000028E6D08B42E4D18242E2DC04DBAC42DE
:100B6800DFD80020AC42F2D2002B0BD01800EEE701
:100B7800002CECD0D5E78B42D3D1F5E700208B428F
:100B8800E5D0CEE701204042E1E7C046F0B54F4648
:100B98004646D64643025B0A4500C0B599460F1C37
:100BA8002D0EC60F002D00D188E0FF2D00D18DE05D
:100BB8008022DB00D2041A430023914698469A46C5
:100BC8007F3D7C027B00640A1B0EFF0F002B68D060
:100BD800FF2B21D08022E400D204144342467F3BFD
:100BE8005B1900215D1C0A2A2EDC7E404246022A3F
:100BF80023DC013A012A00D9BDE002296ED001297F
:100C08002CD100200022C005F60710433043E0BC79
:100C1800BA46B146A846F0BD2B00FF33002C65D07C
:100C28000322414611433200013588467A40FF3598
:100C38000A2900DDD8E0160003214046012282403F
:100C4800A620C000024220D05346022B46D0032BD8
:100C580000D1BBE051464C460129D2D02B007F334E
:100C6800002B70DD620704D00F222240042A00D036
:100C78000434220103D5634B1C402B008033FE2B28
:100C88002CDCA201520AD8B2BDE7902080000242B3
:100C980027D1B938FF3810426DD03E00A1468A46A8
:100CA800D2E7002C41D1012342461A4390462B003B
:100CB800424601215D1C0A2A97DDC5E7002B26D193
:100CC80004239846033B00259A467AE7002B18D15F
:100CD80008239846063BFF259A4672E7FF20002224
:100CE80091E780220026FF20D2038CE741460222AA
:100CF800013511438846FF350A29A5DC02217E40CB
:100D080074E70C239846093BFF259A4659E71800D3
:100D180001F0CEFE4A46431F76259A4000236D42D5
:100D2800914698469A462D1A4BE7200001F0C0FEDE
:100D38004246431F9C402B1A763B00215D1C0A2A21
:100D480000DC52E780E70122D31A1B2B00DD58E7AD
:100D58009E352200AC40DA40631E9C412243530773
:100D680004D00F231340042B00D00432530137D58D
:100D78000120002247E7210C4A462404240C2700BE
:100D8800100C1204120C44435743484351433A0C85
:100D980009195218944203D9802149028C466044AB
:100DA8003F0411043F0CC9198C01671EBC41120C89
:100DB800890E12180C439201144312010ED5012317
:100DC80062081C40144349E73E00A14680224B4676
:100DD800D2031A435202FF20520A14E71D003DE7CE
:100DE80092010020520A0EE70F29EDD180224B46CE
:100DF800D2031342EAD01442E8D13E00FF20224336
:100E080001E7C046FFFFFFF7F8B54746CE464E025A
:100E180043024500720AC40F480080B594465F0A31
:100E28002D0E9B09000EC90FB609FF2824D00122F8
:100E380051402A1A8C420FD0002A00DC6AE10028AF
:100E480035D1002E00D1A2E0511E012A00D124E1A3
:100E5800FF2A21D00A002FE0002A00DC67E10028E1
:100E68005ED0FF2D18D08021C9040E431B2A00DC58
:100E780076E02A00013332E02A00FF3A9146002E3C
:100E880042D08C4255D04A46002A00D19CE0002D21
:100E980000D177E00C003300DB08002B00D16EE0B6
:100EA8008022D20313435B02FF205B0A24E0FF2D5C
:100EB800F2D08021C9040E4301211B2A08DC31002D
:100EC8002020D140821A96403200501E82411143A0
:100ED8005B1A5A0160D407212A00194057D00F2104
:100EE8001940042900D00433590150D5501CFE2A5A
:100EF80045D09B01C0B25B0AC0051843E4072043F4
:100F0800C0BCB946B046F8BD012251408C42BAD1A6
:100F18004A46002A10D0002D00D198E00023BBE7F4
:100F2800002E34D0511E012A6ED0FF2AB4D00A00F8
:100F38009CE7002A00D088E0FE206A1C104200D0FE
:100F480092E0002D00D0A4E0002B00D1CBE0002ED1
:100F580000D0CAE00022DB085B025B0AD0B2CBE714
:100F680031002020D140821A96403200501E824122
:100F78000A439B185A01AED56A1CFE2D4AD1FF20A0
:100F88000023B9E7FF22002B4BD10C003300DB080C
:100F9800FF2A00D181E7DFE79F01BF09380001F090
:100FA80087FD05388740854221DC3B002021421B14
:100FB8000132D3408A1A97407A1E974100223B4358
:100FC800590700D08BE78FE7FE206A1C104212D128
:100FD800002D52D1002B7CD0002EBBD09A1B500183
:100FE80000D48BE001240022F31A0C40E8E7564BAA
:100FF8002A1A3B40E4E79F1B7A0146D4002FCDD143
:1010080000240020002377E79B19012501325901AC
:1010180000D460E701214D4819405B0803400B43A9
:10102800CEE7571E012A5AD00C00FF2A33D00122DE
:101038001B2F07DC2021C91B1A008B40FA40591EC0
:101048008B411A430500B31A43E7002D23D1FF2231
:10105800002B9BD0511E012AD6D0FF2A1BD01B295A
:101068002CDD0200731C3AE7FF2A88D09B195B0825
:10107800590700D033E7DB086EE7002B10D1002EAC
:1010880043D0012433000C4006E70124F71A0C4032
:1010980084E7002B04D13300FEE601259B1B18E7EB
:1010A800002E00D1F8E68022D203974204D394455B
:1010B80002D2012433000C40DB08F1E61A00202597
:1010C800CA40691A8B40591E8B41134305009B196E
:1010D80050E7002E94D0012433000C403AE70C006E
:1010E8000125F31AF5E6330034E79B19002259016C
:1010F800C1D5154A1340DB0801222DE7002A00D18B
:101108007EE713000022DB0826E780230024FF2067
:10111800DB03F1E6002A00D156E7471B3A00002D11
:1011280000D130E78022D2040C0013437FE7002A65
:1011380000D101E7411B002D01D10A0088E7802278
:10114800D20413438BE7C046FFFFFFFBFFFFFF7D81
:1011580041024200C30F490A0020120E7E2A03DD15
:101168009D2A02DD094A981870478020000401432F
:10117800952A07DC9620821AD1404842002BF3D1E9
:101188000800F1E7963A9140F7E7C046FFFFFF7F76
:1011980070B5002813D0C317C5185D40C40F2800C8
:1011A80001F086FC9E2301001B1A962B0FDC0828F1
:1011B80034D008398D406D026D0AD8B202E000249F
:1011C80000200025C0052843E407204370BD992B63
:1011D80016DC421F052800D095402A00114802401D
:1011E8006E0709D00F263540042D05D0043255016D
:1011F80002D59F2302405B1A9201550AD8B2E1E753
:101208000522121A2800D040020008001B30854031
:101218002800451EA84102431500DEE76D0296200E
:101228006D0ACFE7FFFFFFFB70B5041E0ED001F07B
:101238003FFC9E2301001B1A962B0CDC08282FD09C
:1012480008398C406402640AD8B201E00020002406
:10125800C005204370BD992B16DC421F052800D01D
:101268009440220010480240650709D00F252C4001
:10127800042C05D00432540102D59F2302405B1A86
:101288009201540AD8B2E3E7020020001B329040D2
:101298000200501E82410520401AC4401443E0E772
:1012A80064029620640AD3E7FFFFFFFBF0B5DE4631
:1012B800454657464E46E0B587B0009201930B036A
:1012C8001B0B9B46CA0F4B00040080465B0D029225
:1012D80000D16AE1D44A934200D18CE15946420FC9
:1012E800C9000A43802109041143C2009046CF4A2D
:1012F800894692469A44002300240393009E019F46
:101308003B031B0B9B467B0030005B0DFD0F002B46
:1013180000D128E1C44A934200D177E15946720FBF
:10132800C9000A438021090411438B46BF49F200D2
:101338008C4651466344CB1A9A460023029E6E405F
:101348000F2C27D8BA49A40009598F46CB464246E4
:10135800029E039B022B16D0032B00D1A6E2012B81
:1013680000D0DFE000220023002490461B05234321
:10137800F60733434046190007B0F0BCBB46B246F7
:10138800A946A046F0BD002200249046A64BEDE7F2
:101398002E00DFE7CB4500D2D4E100D1CFE1012315
:1013A8005B429C46444648460027E2445B46150E8D
:1013B8001B021D43190C2B04120200951D0C9146AB
:1013C80002910395FEF74EFF02006A430B04210CBD
:1013D800804619438A4209D9009D0123AC465B42E5
:1013E80061449C46E0448D4200D8FBE1881A02998A
:1013F800FEF738FF039A240442430904240C03002F
:101408000C43A24206D90099013B8C466444A14290
:1014180000D8E1E1A01A424612041A4393464B460B
:1014280059461B0C1D0004930B0449460904090C7A
:101438000C001B0C5C43120C6B43884651436A43F7
:10144800250CAC465B186344994203D980214902B4
:101458008C466244190C24041B04240C8A181C1999
:10146800904202D316D1A74214D25B46009D013B9D
:101478004F4405934F459B41AC465B426344C018BB
:10148800854200D3A1E1824200D9F6E100D1F1E121
:10149800059B9B463C1BA742BF41009D801A7F428B
:1014A800C01B854200D1D0E10299FEF7DBFE039A0A
:1014B8000B044243210C070019438A4200D978E102
:1014C800881A0299FEF7CEFE039A240442430904BF
:1014D800240C03000C43A24200D95DE14146A41A42
:1014E8003A041A43049D13041B0C594347466B43A3
:1014F8009C46100C47430B0CBC44634468439F4212
:1015080003D980256D02AC4660441F0C09041B04F6
:10151800090C3F185B18BC4200D202E100D1FDE083
:1015280001231A43434B5344002B00DCAEE0510720
:1015380000D098E15946C90106D559463E4B194095
:1015480080238B46DB0053443C498B4200DD1AE77D
:101558005946D208490711435A465B055402884642
:10156800240B5B0D02E75A46009B1A4300D17EE02C
:101578005B46002B00D100E1584601F099FA0200C1
:1015880003000B3A1D27009EBA1A19005846D64088
:1015980008398840320002439346009A8A40284915
:1015A80053448A469A440023C8E65B460343994657
:1015B80056D05B46002B00D1CDE0584601F078FAB2
:1015C8000B235B429C460200844466461D239B1BFA
:1015D800260011005846DE4008398840330003438E
:1015E800994623008B409846164B00249B1A9A462E
:1015F8000023039382E65A46024391462AD10022E9
:101608009A46022390460824039377E65A46009B9D
:101618001A430D4B9C46E244002A17D102231C436F
:1016280000239B46023389E6FF07000001FCFFFF09
:101638002CEA0008FF030000FFFFFFFEFE07000082
:10164800F30300000DFCFFFF01F8FFFF0323320046
:101658001C4373E69A460323D9460C2403934DE6AC
:10166800002398469A4601330424039346E601234F
:101678001C4300239B46013360E6002380249846E0
:101688000026924B240371E6012252420121C91A15
:10169800382900DD66E61F2900DCABE01F20404248
:1016A800C31A5846D8400300202904D05846884910
:1016B800514488400243511E8A411A4307231900A6
:1016C8000024114013420CD00F231340042B00D1E7
:1016D800F9E0111D91429B410A005B4259075B02E8
:1016E8001C0BD2080A43904600233FE680244B4651
:1016F8002403234209D05B46234206D11C4324031A
:101708002E009046714B240B30E680244B46240370
:101718001C432403029E6D4B240B27E6002B00D1AB
:1017280000E70098511E84466444844200D284E055
:10173800BC4200D2AEE000D1C1E00A00F0E642456A
:1017480000D92CE64B46DC07580843465B081C4387
:101758004346DF072AE601F0ABF915239C4684448B
:101768000200634620321C2B00DC2EE723000838D9
:10177800834099460023984636E701F099F902001C
:101788000300153220331C2A00DCFBE600990838D8
:10179800814000228B4602E70099013B8C46644455
:1017A800A14200D99AE6A24200D897E6831E644473
:1017B80094E6AC466144013F8D4200D980E68A42F6
:1017C80000D87DE6871E61447AE6854200D05FE650
:1017D800B94500D95CE656E6A24200D81AE6831E4F
:1017E800644417E68A4200D800E6AC46831E984651
:1017F8006144FBE537481400504482405B461700BB
:101808008340CC407A1E974123433B431A005B46F2
:10181800CB40510709D00F211140042905D0111DD3
:101828009142924152429B180A00190200D455E78E
:10183800002201230024904698E50A00BC4200D00B
:101848006EE64B4500D06BE66CE6234B234A5344C7
:10185800924500DA18E7012149420A1D8A42894166
:1018680049428B4466E60F211140042900D161E604
:101878001100F2E7BC4200D80AE602235B429C460C
:1018880000994F444F459B41E3448C465B42634477
:10189800C018FFE54946009D480048458941AC46C7
:1018A800494261448146023A6418C7E780245B468E
:1018B80024031C4324039046044B240B56E5994506
:1018C800E8D30A00BDE7002308E7C046FF07000089
:1018D8003E0400001E040000FF03000002FCFFFF9E
:1018E800F0B55746DE464E464546E0B50D000400C5
:1018F800E80F83460903D80F090B824619488C461E
:101908001F0369005E00490D3F0B760D814218D018
:1019180086420FD00120B1420DD1BC450BD1944273
:1019280009D1D3451CD0002905D160462043431E68
:10193800984100E00120F0BCBB46B246A946A0464B
:10194800F0BD01208E42F6D1614639430F0017439E
:101958002743F0D15B465246981A431E9841EAE75E
:101968000020E8E7FF070000F0B557464E46454619
:10197800DE46E0B50D000F03390B83B00400804646
:1019880001915800E90F314F400D8C466E00190344
:1019980082469146760D090BD80FBE421FD0BA4534
:1019A8000FD0002E2FD15546019E3443002D27D14C
:1019B8000A433AD0002C45D100281AD101204042D0
:1019C80017E011433BD1002E02D1019F2743F3D0EA
:1019D800844509D16346002BF0D0604609E0019F99
:1019E80027432CD1B24524D063460220013B18403E
:1019F800013803B0F0BCBB46B246A946A046F0BDCC
:101A0800002CD9D0E4E75446002CEDD08445EBD126
:101A18005645E9DCDEDB019B8B42E5D8DAD1C845C7
:101A2800E2D80020C845E4D2D4E70020002CE0D05A
:101A3800DAE7114303D18445D6D10020D9E7022043
:101A48004042D6E78445E6D0CEE7C046FF0700000F
:101A5800F0B557464E464546DE46E0B50D000F0345
:101A680004008046E80F390B844683B05800304F95
:101A7800400D01911E03690082469146490D360BBF
:101A8800D80FB94220D0BA450FD000292BD10199DF
:101A98000C435146002937D1324338D0002C44D169
:101AA800002819D10120404216E0164313D100291D
:101AB80002D1019F2743F3D0844520D063460220FA
:101AC800013B1840013807E0019F274303D18A45AD
:101AD800F4D116431FD0022003B0F0BCBB46B24677
:101AE800A946A046F0BD5446002CE7D08445E5D170
:101AF8005145E3DC03DB019BB342DFD80FD06346DB
:101B0800002BCFD06046E7E7002CC9D0D4E70020EF
:101B1800002CE1D0D2E78445D0D10020DCE7C845CD
:101B2800CCD80020C845D7D2E9E78445E3D0C5E73B
:101B3800FF070000F0B55746DE464E464546E0B57D
:101B48001F000B031B0B16009A46CA0F4B0004001C
:101B5800934687B05B0D00D1D5E0BB4A934200D1D4
:101B6800F8E05146420FC9000A4380210904114395
:101B7800C2009146B54A8A469D18002398460293AA
:101B88003C037B00FA0F3000240B5B0D009200D160
:101B980096E0AD4A934231D0720FE400224380248C
:101BA80024041443A94AF000944663445B195A1C60
:101BB8000192424600260A2A42DC5A4600994A40C7
:101BC80093464246022A32DC013A012A00D949E109
:101BD800022E00D1CAE0012E3DD1002300240022AC
:101BE80010005A461B052343D2071343190007B0B8
:101BF800F0BCBB46B246A946A046F0BD924B264370
:101C0800EB18002E00D1BBE00322414611435A468F
:101C1800884600994A40802109018C462900614480
:101C2800019141460A2900DD33E2934603264246E4
:101C380001279740A6213A00C9000A400F4231D037
:101C4800029E022E00D135E2032E00D1D2E1544685
:101C58004846012EC1D0019A7D4B94466344002B1F
:101C680000DCC0E0420709D00F220240042A05D058
:101C7800021D82428041404224181000E20106D52C
:101C8800744B019A1C4080239446DB006344724ADB
:101C980093426BDC6207C00864025B050243240BB5
:101CA8005B0D9DE7902189000F4263D188223A425B
:101CB80000D1D7E0009BA2469B4681460296BFE72B
:101CC8002300334300D17FE0002C00D1ADE1200098
:101CD80000F0EEFE020003000B3A1D201900821AE4
:101CE80030000839D0408C400443300088405B4ABB
:101CF800EB1A944663445A1C0192424600260A2A6B
:101D080000DC5AE79CE753460343994654D05346B0
:101D1800002B00D177E1504600F0CAFE0B235B424E
:101D28009C460200844411005046083988401D230F
:101D3800804660461B1A2000D840030040460343F3
:101D48009A4623008B4099460023444D9846AD1A85
:101D5800029315E752460243914626D100221D0000
:101D68000223924608329046029309E70024002293
:101D7800354B35E7002380249B462403324B2FE75D
:101D88000222414611438022120194462A006244ED
:101D9800884601920A2900DD52E75A460020009938
:101DA80004004A40934602260BE70C221D00032339
:101DB800814690460293E3E600239A460433984608
:101DC800033B00250293DBE6424601331A432B000E
:101DD80090465A1C019242460024002001260A2AF5
:101DE80000DCEAE62CE70122D21A382A00DDF4E604
:101DF8001F2A00DC2AE11F214942CB1A2100D940C1
:101E08000B00202A05D0164A019D94466544AC4033
:101E18002043421E90411843072319000024014023
:101E280003420CD00F230340042B00D140E1031DD3
:101E38008342A4411800644261076402240BC2086B
:101E480000230A43CCE6C046FF07000001FCFFFF61
:101E5800FF030000FFFFFFFEFE0700000DFCFFFF71
:101E68003E04000049464A460904090C0D00160CB8
:101E7800020C0004000C4543AC4605007543A84617
:101E880015000F007543009202952A00009D6F43CC
:101E980065462D0CA94647444F44B84505D9150059
:101EA800802252029046454402953D0C03956546B2
:101EB8002D043F042D0CAC463D0065440495250CCB
:101EC8002404240CAC4625007543A84665460F003B
:101ED8006943414489466743390C49446E43884500
:101EE80003D980225202904646440D0CA84635007C
:101EF80045440595039D3F04A8463F0C0904C919AC
:101F080088444546039555462E04360C2F0C35005B
:101F18004543784381463800A8462D0CAA46009AC6
:101F2800504372434A445244914503D980256D0277
:101F3800A9464844150CA94645462D042D0CA8462B
:101F480065467D43120448449044A94632006546DC
:101F580062436E437C43170C3619BF19BC4203D940
:101F680080246402A446E144029C039EA446059D85
:101F780066448E428941AC4612043C04120CA218F5
:101F88006244494254184644A4464645A441824600
:101F98006442A046AA4292418C458941E244D04419
:101FA800494252420A43A045A441824589416442BC
:101FB80049420C4341463F0CD2191219CC0D0499E1
:101FC80070020843411E884141464A44F60D5202B8
:101FD8003043490214430843D20135D5012243084E
:101FE80002401343E0071843640834E6009BA24606
:101FF8009B4681468024534624031C4324034A46B7
:102008002E4B240BECE500F053FD15239C4684442D
:102018000200634620321C2B00DC84E6002399462C
:102028002300083883409A468EE600F041FD0200FE
:102038000300153220331C2A00DC4EE6020034006F
:10204800083A0020944052E6019304E61C4B210014
:102058009C460300019DD3406544A94019430300F1
:10206800AB40581E834119430800D4404B0709D0A0
:102078000F230B40042B05D00B1D8B42804140429F
:1020880024181800230200D4D6E6012300240022D5
:10209800A6E50F29AAD1802352461B031A42A9D0CC
:1020A8001C42A7D11C43009B02009B46034B97E5AB
:1020B8000024C1E60024014B220091E5FF0700003F
:1020C8001E040000F0B54E464546DE465746E0B5CC
:1020D80085B0009001910C034F00CE0F610A009C5F
:1020E800B046640F0C4300997F0DC80011001A0018
:1020F8001B039C460091019251004B0D9946019B90
:10210800009DD90F63466A0F5B0A1343EA009446A1
:102118009346C14A03900293914500D1CDE0012531
:1021280069404D467D1BAA468E4200D180E0002DB5
:1021380000DC35E34946002900D1DFE0974200D1B1
:1021480094E152460125382A19DC8022029B1204A8
:102158001343029352461F2A00DDE3E1534620222F
:102168006146029DD21A9540D9400D43614691407F
:102178000A00511E8A411543029ADA40A41A451BE7
:10218800A84280414042241A230200D43DE164025F
:10219800640A002C00D147E1200000F089FC03000C
:1021A800083B20212800CA1AD0409C4002009D40CC
:1021B80022439F4200DD77E1D81B0130091A2C0029
:1021C8008D40C4406B1E9D411300C2408B40254387
:1021D800002714001D436B0709D00F232B40042B45
:1021E80005D02B1DAB42AD416D4264191D00230281
:1021F80000D440E1884A0137974200D101E1012625
:1022080043468649ED0821404A072A437C054D028A
:102218002D0B640D1E4024052C43F6073443100093
:10222800210005B0F0BCBB46B246A946A046F0BDA9
:10223800002D00DCD0E24946002900D0D4E06146F8
:10224800029B194300D12BE1691E012D00D1D9E170
:10225800954200D10AE10125382917DC8A46534600
:102268001F2B00DDE7E12022D21A029B6146934032
:102278001D005346D940634693401A000D43511E32
:102288008A4153461543029ADA40A4182D1885420C
:10229800804140422418230200D4B6E05E4B013747
:1022A8009F4200D1ADE001215C4B6A081C402940E7
:1022B8000A43E507154364088DE7594A029B92468D
:1022C8006246BA441A432CD08E422ED05246002A77
:1022D80060D0002F00D1DBE063460E00029CD808D6
:1022E80062070243E4081300234300D154E2802527
:1022F8002D0325432D03484C2D0B8CE76146029B8B
:10230800194300D1CCE029000139012D00D188E121
:10231800954200D1AAE00125382900DD2FE78A4639
:1023280018E7012251408E42D0D15346002B00D1EC
:10233800BEE0002F00D038E1CA462200024300D197
:10234800E2E15346591E012B00D10DE2324A924573
:1023580000D1D2E10127382913DC1F2900DDEEE185
:102368002022029B521A250007009A46CC40904032
:102378009540CF40A244421E904153462F43074305
:1023880002933D00654465459241029B52424F4687
:10239800D41880E7234A7D1C154200D0AAE0624683
:1023A8002500029B05431A43002F00D0F5E0002DBD
:1023B80000D16BE1002A00D152E16346C51A029BA5
:1023C800E21AA8429B415B42D31A1A0200D4D5E113
:1023D80063461D1AAC4592410126029B52421C1BC2
:1023E8008846A41A0E40F6E697423FD05246012589
:1023F800382A00DD4AE78022029B12041343029325
:102408002DE73C000025002205E707232B40002B81
:1024180000D0E2E66BE0C046FF070000FFFF7FFF49
:1024280001F8FFFFFE070000280000F041FB030051
:1024380018331F2B00DCB4E62A00083882409F427C
:1024480000DDB9E0DB1B581C1F2800DCA0E11500EB
:102458001F3BDD40202805D040231B1A9A40531EFD
:102468009A411543072300272B40D0E7C00862078D
:102478000243E40837E7EA0863071A43D34BE40842
:102488009F4200D12FE72403250B7C05640DC2E68B
:10249800CA462200024358D163460E00029C0393A9
:1024A800039B5746DA08E7E7C94CFF1A144092E63F
:1024B800C84D7A1C2A4200D084E022000243002F33
:1024C80000D0EFE0002A00D1E5E0624602990A4315
:1024D80000D1C5E06346C5188C46854280416444F6
:1024E80040422418230202D5B94B01371C40BA4692
:1024F8000395D5E76246851AA84292415242914611
:10250800029BE31A1A004B46D21A130091461A028C
:102518006CD44A464C462A4300D03AE600260024AA
:10252800002578E6029953460D00203AD540202B25
:1025380006D04022D21A0B00934062461A439346B3
:102548005B465A1E93411D4319E653465A1E012BFA
:1025580000D1C6E09D4EB24500D1BDE688460E00CA
:102568000125382A10DC1F2A7FDC20212500891A42
:10257800070088408D40D740D440411E8841029BC7
:102588003D431B1B054302936246551BAC459241D4
:10259800029B52424F469C1AF6E5002D00D0B7E048
:1025A800002A00D1F0E001260E4063460298D908BF
:1025B80042070A43C40896E6854CFF1A144062078E
:1025C800E40860E781498A4200D1C9E06346C1183E
:1025D80081428041029B4042E3181B18DD075C08DA
:1025E800072349080D4317002B4010E763461D1ABF
:1025F800AC4592410126029B52421C1B8846A41AF4
:102608000E40C6E56346C518029B854280419C463C
:102618004042644424180127230200D4F5E6022727
:1026280041E66346C51AA8428041029B4042E41A2B
:102638000127241AA8E5029D52462B00203AD340D0
:1026480019005346202B06D04022D21A2B00934063
:1026580062461A4393465D466B1E9D410D4315E63F
:102668006207C0080243E4080DE71100270020397B
:10267800CF40202A05D040218A1A944025000543DE
:102688000395039D6A1E95413D437DE7002A00D1CD
:1026980044E701260E406346D908029B5A070A43BD
:1026A800DC08F0E6002A28D06246029FC0083A43B8
:1026B80000D1DCE6620710438022E40812031442CA
:1026C80009D0FD08154206D1634601262C00D8081A
:1026D8007B0718430E40420FC000C0085207024350
:1026E80001E663461D1AAC459241029B52421C1BEF
:1026F8000E0088460127A41A46E56346D908029BBE
:102708005A070A43DC08EEE56346029C0393C7E6D2
:10271800C008002A00D1AAE6620710438022E40814
:1027280012031442D7D0029FFD081542D3D1634645
:102738000126D8087B072C0018430E40CBE70A0077
:102748002700203AD740202905D04022521A944029
:10275800250005430395039D6A1E95412F4310E606
:1027680014000025002256E5029B60449946604506
:1027780092414C4452420500A4184CE71A001C0030
:102788002A4300D0B3E6C9E6802400262403AEE538
:1027980020210025091A17E5002200250B4C3AE5EF
:1027A800002D00D1F6E54B46DA1B9246002F00D1EA
:1027B8006FE6382A05DC80263604344388460E0046
:1027C800D1E688460E000125DEE6C046FF07000078
:1027D800FFFF7FFFFE070000002D00D168E64B4693
:1027E800D91B002F01D18A46A7E50127382900DD2A
:1027F800C7E5802212041443AFE5C0460B0002006F
:1028080070B5164D0C0382B0490000200092019368
:10281800240B490DDE0FA94204DD1148814203DD76
:10282800104BF01802B070BD8020400320430E4CBE
:10283800641A1F2C08DD0D4B5B1AD8400300584260
:10284800002EEFD11800EDE7094B009A9C460300D3
:1028580061448B40E2401343F1E7C046FE030000A9
:102868001D040000FFFFFF7F330400001304000075
:10287800EDFBFFFF70B5002816D0C317C5185D40E3
:10288800C40F280000F014F9104B1B1A5B055B0DF0
:102898000A2814DC02002E00153296400B22121A68
:1028A800D5402D032D0B03E000240023002500262E
:1028B8001B052B43E40723433000190070BD0B3878
:1028C80085402D0300262D0BF2E7C0461E040000AC
:1028D80010B5041E10D000F0EBF80E4B1B1A5B0568
:1028E8005B0D0A280FDC0B222100121AD14015308B
:1028F8000A038440120B01E0002300221B05134346
:102908002000190010BD22000B3882401203002459
:10291800120BF3E71E04000070B542024300C40F17
:10292800FE201B0E591C550A08420CD0E0218900D4
:102938008C466D07120B63441B051343E4072343BE
:102948002800190070BD002B14D1002D1BD02800C1
:1029580000F0AEF80A281CDC0B232A001B1ADA4008
:10296800030015339D400E4B12031B1A5B05120B17
:102978005B0DE1E7002D09D0130B802212031A43E7
:102988006D07084BD8E700230022D5E70022054B46
:10299800D2E703002A000B3B9A400025E3E7C04634
:1029A80089030000FF070000F0B54B000F035B0D23
:1029B8003B4C450F83B07F0A5E1C2F43009001916A
:1029C800CA0FC50026420BD036495C18FE2C13DD11
:1029D800FF200023C0051843D207104303B0F0BD01
:1029E800002B02D100200023F4E73D43F0D08023E0
:1029F800DB03FF203B43EDE7002C14DD009BFF00C9
:102A08009B01581E8341690F3B430B43590741D033
:102A18000F211940042928D00433590125D5013440
:102A28000023E0B2D6E721001731DBDB80211E202E
:102A380009043943001B1F281BDD02267642341B7C
:102A48000E00E6403400202804D01748844663442A
:102A580099400D432B00591E8B412343590715D02C
:102A68000F2100241940042917D19B015B0AE0B209
:102A7800B0E70E4C1C192B00A540C340A140681EAE
:102A8800854129430B4300245907C1D19B010020EC
:102A98005B0A9FE7DB08E0B29CE70433E5E7C04642
:102AA800FE07000080FCFFFFA2FCFFFF82FCFFFF87
:102AB8001C2101231B04984201D3000C10391B0A66
:102AC800984201D3000A08391B09984201D300092A
:102AD800043902A2105C40187047C0460403020281
:102AE800010101010000000000000000F0B5D64619
:102AF8004F464646C0B504000D001000190082B0CC
:102B0800002D00DA87E0002B0BDB16001F00AB421C
:102B180019D90020002102B0E0BCBA46B146A84647
:102B2800F0BD002746428F41AF4204D800D082E072
:102B3800A64200D87FE0002000218FE0002746420F
:102B48008F419F42E5D8AF4200D198E000239946D3
:102B58003900300000F0BCF880462900200000F061
:102B6800B7F843461B1A9846203B00D57CE0310055
:102B780099409A460B003100404681400A00AB421A
:102B88005FD85CD05146A41A9D41002900DA93E031
:102B98000021002001260090019151468E400196A7
:102BA800414601268E4041460096002950D0D9075B
:102BB80056080E435F084146012200230CE0AF424D
:102BC80001D1A6420AD8A41BBD4124196D4101397F
:102BD800A4185D41002906D0AF42F0D90139241963
:102BE8006D410029F8D100980199534600196941AF
:102BF800002B48DB2E002C00DE404346DC405346C9
:102C0800002B50DB34009C4023004446A640320091
:102C1800801A99411EE000236242AB4114001D0056
:102C280000298BDB06000F00994200D971E702D119
:102C3800904200D96DE701235B42994688E7A1429B
:102C4800A0D9002100200090019141460029AED171
:102C5800009801994B46002B00D15CE703000C005B
:102C680000215842A14156E7424638009A4620239F
:102C7800310090409B1AD94003000B437BE7A642E2
:102C880000D863E745E7424620239B1A2A009A406A
:102C9800260013004246D6402C001E434346DC4023
:102CA8005346002BAEDA42462023350094409B1A47
:102CB800DD4023002B43A8E7414620260127761A4A
:102CC80000200021F74000900191019768E7C04675
:102CD80010B5002903D1FFF7EBFE203002E0080011
:102CE800FFF7E6FE10BDC04607212C4A2C481368A2
:102CF8008B432C4913600A682B4B1A4080239B0096
:102D080013430B60294B2A491A680A401A601A684B
:102D180028490A401A601A6827490A401A601A683E
:102D280002401A6080221868520002431A6080220A
:102D3800D20018681042FCD01A68204802401A6075
:102D48009A681F4802409A609A681E480240072005
:102D58009A609A6882439A609A68313082439A608E
:102D68000122186E02431A660222186E1042FCD025
:102D78008022D86D52020243DA65DA6D0A40DA65BC
:102D8800D96D114A1140802292000A43DA658022E7
:102D9800D96D12020A43DA657047C0460020024026
:102DA800FFFFFBFF00700040FFF9FFFF001002402B
:102DB800FFFFFFFEFFFFF7FFFFFFFEFFFFC7FFFF5D
:102DC800FFF0FFFFFF8FFFFFFFFCFFFFBFF34F8FF9
:102DD800034B044ADA60BFF34F8FC046FDE7C04695
:102DE80000ED00E00400FA0570B507F0BDF90B4DE1
:102DF8000B4C2B68C01AFA235B00984207D3227841
:102E0800F43BFF3B5340237007F0AEF9286022786B
:102E1800044B002A00D0E6225A6370BDAC010020A2
:102E2800B801002000040040F0B50124AF4D85B082
:102E38002C7005F0CDFFAE4B071E0293AD4BAE488C
:102E4800AE4E039327D139000AF09CFA039B029AED
:102E58001B68A340D35A73632B78002B13D0A84B5D
:102E68002B211E003800A74A0194009406F0ECFFBD
:102E7800330036213800A44A0194009406F0E4FF98
:102E880006F0BCFE2F700023A04AA148536307F048
:102E980071F9FFF79BFF00210AF074FA039B029A6D
:102EA8001B685B00D35A73632B78002B0BD0944BB1
:102EB80036210020974A0194009406F0C5FF06F0D9
:102EC8009DFE00232B70FA20800007F053F900269E
:102ED800FA208E4B80005E6307F04CF98E4B04227B
:102EE80019003000029306F089F806F04BFE06F050
:102EF80085FE029B1B68D02B00D1A8E00124804DE1
:102F080031002B003000854A0194009406F09CFFA4
:102F18002B000B21824A30000194009406F094FFA4
:102F280006F06CFE7A4807F025F905F05FFF0422E9
:102F380030007C4906F02AF80700B04248D106F074
:102F480021FE2B0039003800774A0194009406F0DE
:102F58007BFF2B000B213800744A0194009406F083
:102F680073FF2B0015213800714A0194009406F074
:102F78006BFF2B00202138006E4A0194009406F064
:102F880063FF2B002B2138006B4A019400948025A5
:102F9800802406F059FF06F031FEA4006D00802160
:102FA800664808F01BF80128F9D02100634808F0AA
:102FB80015F80128F3D02900604808F00FF8012817
:102FC800EDD008215D4808F009F80128E7D060E74E
:102FD80004223000029906F011F8071E3CD00422A2
:102FE8005749082005F0D2FF04225649102005F061
:102FF800CDFF22005449282005F0C8FF0422534978
:10300800182005F0C3FF04225149202005F0BEFF17
:1030180022005049302005F0B9FF04224E494020D3
:1030280005F0B4FF22004D49382005F0AFFF06F047
:10303800A9FD30002B003100494A0194009406F0A4
:1030480003FF06F0DBFDFA20C00007F093F84548BF
:1030580007F0BAFC05B0F0BD06F094FD2B0039006E
:103068003800314A0194009406F0EEFE2B000B2143
:1030780038003D4A0194009406F0E6FE2B00152125
:1030880038003A4A0194009406F0DEFE2B00202115
:103098003800284A0194009406F0D6FE2B002B2114
:1030A8003800254A019400948025802406F0CCFE3F
:1030B80006F0A4FDA4006D008021204807F08EFFD3
:1030C8000128F9D021001D4807F088FF0128F3D016
:1030D80029001A4807F082FF0128EDD00821174877
:1030E80007F07CFF0128E7D0D3E6C04603020020A2
:1030F800F8F1000854000020F8020020002C0140DC
:10310800740000206CEA00088CEA00080004004003
:103118008813000093EA000868020020ACEA00085F
:10312800CBEA0008F4F10008EEEA000809EB000811
:1031380028EB000847EB000868EB00080004005083
:10314800C8010020C4010020E1010020C0010020C6
:10315800BC010020E0010020580000208A01002066
:1031680089EB0008A00400209AEB0008B5EB0008E2
:103178007FB5A02001228021C00507F035FF01227C
:103188005B48110007F030FF01220221584807F080
:103198002BFF642006F0EEFF564806F091FAC8208F
:1031A80006F0E8FF06F096FC06F0ECFC06F026FDBB
:1031B800A02001228021C00507F016FF01224C48FB
:1031C800110007F011FF02210122494807F00CFF06
:1031D800642006F0CFFF02A80200474B12CB12C2B0
:1031E80006F084FB041E35D10125210043480AF06E
:1031F800C9F8434A434B12685200D25A424B5A63A9
:1032080006F0C0FC414E210033002000404A0195E1
:10321800009506F019FE33000B2120003D4A019568
:10322800009506F011FE3C4A330015212000019557
:10323800009506F009FE394A330020212000019547
:10324800009506F001FE06F0D9FC354806F092FF1D
:10325800FFF7BCFDA02001228021C00507F0C4FEB5
:1032680001222348110007F0BFFE01220221204855
:1032780007F0BAFE642006F07DFF2A4C200005F016
:103288002BFF7623284821008384284B836205F08E
:103298002CFF041E28D10125210018480AF072F8D5
:1032A800174A184B12685200D25A174B5A6306F045
:1032B80069FC164E2100330020001D4A0195009537
:1032C80006F0C2FD33000B212000124A019500953B
:1032D80006F0BAFD104A330015212000019500952B
:1032E80006F0B2FD134AA7E7FFF79EFD7FBDC04673
:1032F8000004005028040020A8E90008F802002073
:1033080054000020F8F10008002C01406C00002057
:10331800D7EB0008F7EB000816EC000835EC0008BE
:10332800102700003005002004050020D4030020E9
:1033380053EC000873EC0008F0B50227012489B0AB
:103348001422002103A80AF06BFA0421A0202E4BB6
:103358002E4E5A6BC0053A435A635A6B00253A40C1
:103368000092009A5A6B22435A635A6B2240019288
:10337800019A5A6B0A435A635B6B00220B40029313
:103388009631029B07F030FE00223000032107F03F
:103398002BFEC22330009B0003A9039304950594D8
:1033A80007F0F8FC1A23A020039303A9173BC005D4
:1033B80006930494059507F0EDFCA020802203A94C
:1033C800C005039204940595069707F0E3FC0323D0
:1033D800300003A9039304940595069707F0DAFCD7
:1033E800842380229B03300003A90493039205944D
:1033F80007F0D0FC2A002900072007F0A7FB0720C8
:1034080007F0CEFB09B0F0BD0010024000040050E8
:10341800F0B587B006F0AAF9894B1860894B1A688D
:10342800904276D0186006F093F9874D286006F030
:1034380096F92D68854B040018602800FFF748FAB4
:10344800834A844BFEF776FBFCF7F4FF824B02902D
:1034580018600A212800FCF705FF804F200039601A
:10346800FFF736FA7A4A7B4BFEF764FBFCF7E2FF7C
:103478007B4E0A2130602000FCF7F4FE794D7A4C2F
:103488007A4B029A29601800210002930AF05CF92D
:10349800774B21003A6818001F000AF055F9754B60
:1034A8002100326818001E000AF04EF9210001249C
:1034B800714B2A68180003930AF046F96F4D0C21E6
:1034C8002B000020029A0194009406F0BDFC2B000A
:1034D8003A000C2111200194009406F0B5FC2B0051
:1034E8000A212220664A0194009406F0ADFC2B00C4
:1034F80032000C2132200194009406F0A5FC2B0028
:103508000C214320039A0194009406F09DFC06F0D8
:1035180075FB5C4E5C4C320021005C4806F016FAE4
:103528003068FDF715FE5A4D28602068FDF710FE3B
:103538004D4B584C584E190002002060300005933E
:103548000AF002F92A68554805990AF0FDF8236837
:10355800534A092B32DD01240926002707230C21B1
:103568005A200194009606F07AFB4E4D0C212B0050
:103578006220494A0194009406F066FC00220D215D
:10358800712006F021FB330004220C2173200097E0
:1035980006F074FD062303220F217020009706F021
:1035A8006DFD07230C2170203F4A0194009606F018
:1035B80056FB2B003D4A019400943CE0092B77D838
:1035C8000124092707230C215A200194009706F0AB
:1035D80046FB32000026334D0C212B00622001945B
:1035E800009406F031FC00220D216A2006F0ECFA66
:1035F8003B0004220C216C20009606F03FFD0623B8
:1036080003220F216920009606F038FD07230C21BC
:103618006920254A0194009706F021FB234E2B00D0
:1036280032000C2170200194009406F00DFC2B0050
:103638003200019400940C21772006F005FC59E033
:10364800A00200209C020020A8020020A402002062
:103658009A9999999999B93F84020020800200208B
:103668007C0200207802002091EC00084002002033
:103678003C020020380200203402002064000020B0
:10368800B5EF00086002002064020020040000205A
:103698006C020020700200202C020020240200206E
:1036A8003CF500086C0000202AF50008B7EE000879
:1036B80019000931082900D84DE7012409252833C4
:1036C800019400951E2B00D931E107230C215A20C3
:1036D80006F0C5FA32000C216220EF4B01940094E9
:1036E80006F0B2FB07230C217720EC4A01940095E1
:1036F80006F0B5FAEA4D2B680A3B4F2B1AD801247D
:10370800092316215A20E74A00930194023B06F048
:10371800A6FAE14E162133006220E34A0194009490
:1037280006F092FB330016217020E04A01940094C1
:1037380006F08AFB2B680124592B00DC06E10923DB
:10374800D84A00931621023B5A20019406F087FAC2
:10375800D14BD74A162162200194009406F074FBDD
:10376800D44A2B681268133A082A00D8FDE00022D0
:1037780004215D2006F028FA00220421622006F0C8
:1037880023FA00240523612219005E20009406F024
:10379800D2FBC94A01230193073321005A20009321
:1037A800043306F05CFAC54CC54B2200C549C6482F
:1037B80005F0E0FE2068FCF725FEFFF75BF8C34A3A
:1037C800C34BFDF773FDFFF719F8C24BC24E020059
:1037D80018600599300009F0B7FF0124092320215A
:1037E8005920BE4A00930194023B06F038FABC4DBA
:1037F80032002B00222162200194009406F024FB61
:103808002B00B84A222174200194009406F01CFB76
:1038180005F07AFFB44BB54F1A683860904200D172
:103828001EE2186005F077FFB14E306005F065FFC5
:10383800B04B186005F078FFFDF7F6FCFFF76CF861
:10384800AD4AAE4BFEF776F9FFF7AEF8AC4BAD4993
:1038580018600AF071F8AC49FDF798F90BF070F8A8
:10386800AA4BAB4D1860FCF7CDFDAA4B3A680599F9
:1038780028601800029309F067FFA74B3268180008
:103888000599039309F060FFA44B2A68180005996D
:10389800049309F059FF3B687F4F092B00D84BE18F
:1038A8003368092B00D8A6E02B6801940094092BF3
:1038B80073D93B0026210020029A06F0C5FA984DDC
:1038C8003B002A0026210F200194009406F0BCFA40
:1038D8003B0026211720039A0194009406F0B4FABD
:1038E80026213B0008002A000194009406F0ACFA57
:1038F8003B0026212E20049A0194009406F0A4FA95
:103908007C4B18680138062800D9A9E10124624DCA
:1039180026212B00834A844E01940094FCF712FC64
:103928009501A201AA01B201BA01C201CA01072385
:103938000C215A2006F093F9574D0C212B006220D8
:103948007A4A0194009406F07FFA32E6092B00DDEA
:1039580006E70923534A00931621023B5A20019493
:1039680006F07DF94C4B714AF4E6143B412B00D923
:10397800FDE6002205215D2006F026F9002205213A
:10398800622006F021F900240423612219005E2038
:10399800009406F0D0FA664AFCE63B002621002097
:1039A800029A06F051FA5E4D3B002A0026210F20AC
:1039B8000194009406F048FA3B0026211720039A48
:1039C8000194009406F040FA26213B002A000800E2
:1039D8000194009406F038FA3B00564A019400948A
:1039E80026212E2006F030FA3B0026213520049AA5
:1039F8000194009482E72B6801940094092B1DD947
:103A08003B0026210020029A06F01EFA444D3B0096
:103A18002A0026210F200194009406F015FA3B0095
:103A2800444A019400942621172006F00DFA3B0021
:103A380026211E20039A019400944FE73B0026217B
:103A48000020029A06F000FA354E3B00320026218B
:103A58000F200194009406F0F7F9364D3B002A0038
:103A6800262117200194009406F0EEF93B00262148
:103A78001E20039A0194009406F0E6F926213B00E3
:103A8800320008000194009406F0DEF93B002A0099
:103A980001940094A4E7C0466C0000202AF50008B1
:103AA8006C02002045F50008240200204C0000208C
:103AB8009CEC000870020020C2F400085C020020A0
:103AC8005402002058020020040500205F07CE1988
:103AD80051AA6040740200201C02002033F500083F
:103AE80074000020A3EC00088C020020940200203F
:103AF80098020020900200207B14AE47E17A843FB0
:103B0800500200204C0200200000C8424802002059
:103B180088020020140200200C0200200402002069
:103B2800A8EC0008C5F100082C00002095EC00085E
:103B3800D2F40008B6F100083368624E092B3DD96B
:103B48002B6801940094092B0CD93B0032002621E4
:103B5800002006F079F93B0026210720029A0194FB
:103B68000094AAE63B0032002621002006F06CF9FA
:103B78003B0026210720029A0194009406F064F97C
:103B8800514D3B002A0026210F200194009406F095
:103B98005BF93B0026211720039A0194009406F054
:103BA80053F926213B002A0008000194009406F0EE
:103BB8004BF93B0032000194009411E72B68019403
:103BC8000094092B1BD93B0032002621002006F067
:103BD8003BF93B0026210720029A0194009406F045
:103BE80033F9394D3B002A0026210F200194009417
:103BF80006F02AF93B0032000194009413E73B00D9
:103C080032002621002006F01FF93B00262107205C
:103C1800029A0194009406F017F92B4D3B002A00F4
:103C280026210F200194009406F00EF93B00320083
:103C3800262117200194009406F006F93B0026215E
:103C48001E20039A01940094A9E73D2006F0FCF891
:103C58002B000194009432682621452006F0F4F8E0
:103C680007B0F0BD3D2006F0EFF8019400942B005A
:103C78007268F1E73D2006F0E7F8019400942B0004
:103C8800B268E9E73D2006F0DFF8019400942B00C4
:103C9800F268E1E73D2006F0D7F8019400942B0084
:103CA8003269D9E73D2006F0CFF8019400942B0043
:103CB8007269D1E73D2006F0C7F8019400942B0003
:103CC800B269C9E7B6F10008A8EC0008F7B5012405
:103CD800574E362133000020564A0194009406F0CE
:103CE800B3F8330036214020534A0194009406F07B
:103CF800ABF8524D524F2B78002B3BD13300362175
:103D08001D20504A0194009406F09EF833003A00B2
:103D1800362138200194009406F096F82B784A4C06
:103D2800002B36D08021494807F058F9061E4BD1A0
:103D380006F01AFA2368C01AC82845D906F014FAFA
:103D4800434B20601E7005F01DFF05F011FF05F0C4
:103D580055FF01223F4B1A7006F006FA3E4A3F4BC8
:103D6800126818603E4B5200D25A3E4B5A6305F017
:103D780045FF29E03300362138203B4A019400945E
:103D880006F062F833003A0036211D2001940094B1
:103D9800C2E780212D4807F021F9061E36D106F02A
:103DA800E3F92368C01AC82830D906F0DDF9284B92
:103DB80020601E7005F0E6FE05F0DAFE05F01EFF35
:103DC80006F0D2F9254B186006F0CEF92368C01A20
:103DD800C8281FD980211D48890007F0FFF800284E
:103DE80018D101232A7853402B7006F0BDF91F4BD8
:103DF800186006F0B9F9184A194B12682060520089
:103E0800D25A184B5A6305F0F9FE10E02B78002BB4
:103E1800DAD087E706F0A8F92368C01AC82806D9B7
:103E280080210A48490007F0D9F80028D9D0F7BD01
:103E38006C000020AAEC0008B3EC00080102002086
:103E4800B7EE0008C6EC0008EC01002000040050A2
:103E580028000020FF01002054000020E801002075
:103E6800F8F10008002C0140C8EC0008F801002017
:103E780070B51E4C88B0200006F058FE20000224C1
:103E880006F02EFD082007F085FE1022002104A868
:103E980009F0C6FC0121164BA0265A6BF6052243F1
:103EA8005A635A6B300022400192019A5A6B0025DE
:103EB8000A435A635B6B05940B400293029B1A23D7
:103EC80003A9039306F066FF8023300003A9039338
:103ED8000495059406F05EFF0323064803A903939F
:103EE8000495059406F056FF08B070BDA0040020A4
:103EF800001002400004005037B50124154D0B2175
:103F08002B000820144A0194009405F09DFF2B0013
:103F180015210820114A0194009405F095FF2B0003
:103F2800202108200E4A0194009405F08DFF2B00F3
:103F38002B2108200B4A0194009405F085FF2B00E3
:103F480036210820084A0194009405F07DFF05F009
:103F580055FE37BD6C000020B3EC0008CAEC000821
:103F6800E1EC000801ED00081BED0008F0B5B74BC7
:103F7800B74A87B0059303921B78B64AB64DB74C3B
:103F8800B74EB84F0492002B16D005F0E1FB28601D
:103F980005F0E5FB039B186005F0B6FB206005F013
:103FA800BAFB306005F0C0FB386005F0A6FB049B47
:103FB800059A186000231370AB4B1A68002A31DA8F
:103FC80003221A603368002B30DC0C233360FA229A
:103FD8003968A64BD20099422CDD3A602B68172B22
:103FE8002CDD00232B60039B1B683B2B2ADD002361
:103FF800039A1360049B1B68072B27DD0123049A8F
:10400800136030683B6801389B0700D1C5E00B2876
:1040180025D82368FCF782F81EB91EDB1EDB1E1E9E
:10402800DB1EDB1E032ACDDD0022CAE70C2BCEDD0A
:104038000123CBE79142D1DA3B60CFE7002BD2DAFC
:104048001723CFE7002BD5DA3B23D1E7002BD8DCA9
:104058000723D4E71F2B00DC92E001232360844B65
:104068001A68022A00DCBAE002221A60814B1A6838
:10407800042A00DCB8E004221A607F4C7F4E21003D
:104088002A68300009F060FB714B7D4F21001A68E7
:104098003800049309F058FB7A4A704B05922100C6
:1040A8001A68059809F050FB6D4B21001A6876488C
:1040B80009F04AFB6B4B21001A68744809F044FB6D
:1040C8002B68734C092B00DDA8E00125049B714A7D
:1040D8001B68039201950095092B00DD89E02300F8
:1040E8000B21082005F0B0FE230032000B210F2021
:1040F8000195009505F0A8FE2300039A0195009507
:104108000B211F2005F0A0FE23003A000B212620DA
:104118000195009505F098FE504A514B5C4912688C
:1041280001251B68574F0391092A00DDE3E0594E2A
:1041380001950095092B00DDAEE00B00320015213A
:10414800082005F081FE15210F20039B059A019593
:10415800009505F079FE320015211F20039B01957B
:10416800009505F071FE15212620474A039B01950D
:10417800009505F069FE454A039B01950095A5E069
:10418800002B00DD6BE71F2368E71C2B00DD64E7CD
:10419800002B00DD63E71C2360E70B2800D95EE7EE
:1041A8002368FBF7C5FF57FF0C0057FF140057FFA4
:1041B800140057FF57FF140057FF140057FF1D2B1B
:1041C80000DD4AE7002B00DD49E71D2346E71E2BEB
:1041D80000DD42E7002B00DD41E71E233EE7002A11
:1041E80000DB43E7002240E7002A00DB45E7002226
:1041F80042E723000B210820039A05F025FE23003F
:1042080032000B210F200195009505F01DFE2300BB
:104218003A000B211F20019500957BE70125049B9F
:104228001B6801950095092B0ADC230032000B213D
:10423800082005F009FE2300164A019500955FE75E
:10424800230032000B210820DFE7C04620000020B1
:104258009C01002014000020A00100201C00002068
:1042680018000020100000209801002033080000EA
:10427800940100209001002034ED00082D01002059
:1042880028010020230100201E0100201601002023
:104298006C000020B6F10008230032001521082028
:1042A80005F0D2FD23003A0015210F200195009555
:1042B80005F0CAFD230015211F20BE4A019500956F
:1042C80005F0C2FD2300BC4A019500953620152152
:1042D80005F0BAFDB94BBA4C18680138062835D82C
:1042E8000123B84A019300932300FBF717FF2A49DB
:1042F8004B4D4F51530001950095092B14DC2300B9
:1043080015210820059A05F09FFD230015211F207F
:10431800AD4A0195009505F097FD2300152126204B
:10432800A44A01950095CBE73A0015210820039B84
:1043380005F08AFD15211F209E4A039B01950095D3
:1043480017E7126815215A2005F07EFD0125230084
:10435800202108209D4A0195009505F075FD230050
:1043680008202B219A4A0195009505F06DFD994B7F
:104378001868032836D8984EFBF7D0FE0EA0B7CCA5
:104388005268DFE79268DDE7D268DBE71269D9E7B0
:104398005269D7E79269D5E7904B01251E78002E20
:1043A8006ED123000B2130008D4A0195009505F050
:1043B8004BFD894F23003A001521300001950095E7
:1043C80005F042FD23003A002021300001950095B8
:1043D80005F03AFD23003A00019500952B210020B5
:1043E80005F032FD7D4B1B78002B08D101211720E9
:1043F80001910091724B7B4A0A3105F025FD7A4BF9
:104408001B78002B1AD101246D4D784E2B003200F9
:10441800152117200194009405F016FD2B00320099
:1044280015212E200194009405F00EFD2B00152176
:1044380052206F4A0194009405F006FD6D4B6E4EB4
:104448001968012900D182E0022900D18BE00029F6
:1044580008D10131019100911720594B614A0A3165
:1044680005F0F2FC654B1868042800D9EBE0544CC1
:104478005E4FFBF767FECF007504AC04DD0417053B
:1044880023005F4A0B2100200195009505F0DCFC14
:10449800514E23003200019500951521002005F0AA
:1044A800D3FC23003200019500952021002005F05F
:1044B800CBFC23003200019500958FE701254A4B7C
:1044C80032001F780B21230001950095002F07D19A
:1044D800380005F0B9FC424A230001950095DCE755
:1044E800002005F0B1FC464AF6E7230032000B2114
:1044F80000200195009505F0A7FC23003200152146
:1045080000200195009505F09FFC2300344A019591
:104518000095CAE7230032000B2100200195009581
:1045280005F092FC2300320015210020019500952A
:1045380005F08AFC23003200202100200195009517
:1045480005F082FC2300264A0195009546E72D4C8C
:104558001B4B2278002A04D0294A019100910B2193
:104568000BE0294AF9E7294C01212278144B002A4B
:104578001ED0234A019100910A31172005F064FCEE
:1045880005F0F2FD3368C01AC82800D86AE7802110
:104598001F4806F023FD002800D063E705F0E4FD7E
:1045A8000123227830605340237005F027FB59E738
:1045B8000B4AD2E71E01002016010020140000203B
:1045C8006C0000202C000020B6F1000837ED000830
:1045D80053ED000898010020B7EE0008AB01002059
:1045E800C8EC0008B5EF0008AA010020A8EC0008F4
:1045F800C5F1000894010020EC0100209001002082
:104608006DF10008A9010020C6EC0008A8010020EF
:1046180000040050012523003A00152117200195B8
:10462800009505F011FC23003A0015212E20019574
:10463800009505F009FC230015215220B64A019582
:10464800009505F001FC05F08FFDB44C2368C01AF5
:10465800C82828D98021B248890006F0BFFC002864
:1046680021D1B04B1B78002B1DD1AF4B1B78002BF1
:1046780019D1AE4B1B78002B15D1AD4B1B78002BF5
:1046880011D1AC4B1B78002B0DD1AB4B1B78002BF9
:1046980009D1AA4B1B78002B05D1A94BA94A1B7835
:1046A800002B00D138E305F05FFD2368C01AC82845
:1046B80029D980219A48490006F090FC002822D187
:1046C800984B1B78002B1ED1974B1B78002B1AD1C7
:1046D800964B1B78002B16D1954B1B78002B12D1CB
:1046E800944B1B78002B0ED1934B1B78002B0AD1CF
:1046F800924B1B78002B06D1914B924A1B78002BCA
:1047080001D100F04AFC05F02FFD2368C01AC82823
:1047180029D980218248490006F060FC002822D16E
:10472800804B1B78002B1ED07F4B1B78002B1AD197
:104738007E4B1B78002B16D17D4B1B78002B12D19A
:104748007C4B1B78002B0ED17B4B1B78002B0AD19E
:104758007A4B1B78002B06D1794B7B4A1B78002BB0
:1047680001D100F01AFC05F0FFFC2368C01AC82824
:1047780028D980216A48890006F030FC002821D118
:10478800684B1B78002B1DD0674B1B78002B19D169
:10479800664B1B78002B15D1654B1B78002B11D16C
:1047A800644B1B78002B0DD1634B1B78002B09D170
:1047B800624B1B78002B05D1614B634A1B78002B99
:1047C80000D1A9E205F0D0FC2368C01AC82828D96E
:1047D80080215348490006F001FC002821D1514BA3
:1047E8001B78002B1DD1504B1B78002B19D04F4B39
:1047F8001B78002B15D14E4B1B78002B11D14D4B3C
:104808001B78002B0DD14C4B1B78002B09D14B4B3F
:104818001B78002B05D14A4B4C4A1B78002B00D142
:10482800BBE305F0A1FC2368C01AC82828D9802159
:104838003B48890006F0D2FB002821D1394B1B7870
:10484800002B1DD1384B1B78002B19D0374B1B7808
:10485800002B15D1364B1B78002B11D1354B1B780B
:10486800002B0DD1344B1B78002B09D1334B1B780F
:10487800002B05D1324B354A1B78002B00D14BE277
:1048880005F072FC2368C01AC82828D9802124485A
:10489800490006F0A3FB002821D1224B1B78002BEE
:1048A8001DD0214B1B78002B19D1204B1B78002BD6
:1048B80015D01F4B1B78002B11D11E4B1B78002BDA
:1048C8000DD11D4B1B78002B09D11C4B1B78002BDD
:1048D80005D11B4B1E4A1B78002B00D11CE205F0AA
:1048E80043FC2368C01AC82848D980210C4889008D
:1048F80006F074FB002841D10A4B1B78002B3DD0F1
:10490800094B1B78002B39D1084B1B78002B35D06D
:10491800074B1B781EE0C046C5F10008EC010020DB
:1049280000040050AB010020AA010020A9010020CA
:10493800A8010020A7010020A6010020A501002051
:10494800A40100209801002094010020900100207B
:10495800A0010020002B11D1B54B1B78002B0DD1E5
:10496800B44B1B78002B09D1B34B1B78002B05D116
:10497800B24BB34A1B78002B00D10EE305F0F4FBD1
:104988002368C01AC82828D98021AE48490006F0F3
:1049980025FB002821D1AC4B1B78002B1DD0AB4B3D
:1049A8001B78002B19D1AA4B1B78002B15D1A94BCA
:1049B8001B78002B11D09E4B1B78002B0DD19D4BE3
:1049C8001B78002B09D19C4B1B78002B05D19B4BE6
:1049D800A14A1B78002B00D19EE105F0C5FB236896
:1049E800C01AC82828D980219648890006F0F6FA06
:1049F800002821D1944B1B78002B1DD0934B1B789A
:104A0800002B19D1924B1B78002B15D1914B1B7899
:104A1800002B11D0864B1B78002B0DD1854B1B78B2
:104A2800002B09D1844B1B78002B05D1834B8A4A74
:104A38001B78002B00D1B0E205F096FB2368C01A62
:104A4800C82828D980217F48490006F0C7FA0028DD
:104A580021D17D4B1B78002B1DD17C4B1B78002B63
:104A680019D07B4B1B78002B15D17A4B1B78002B68
:104A780011D16F4B1B78002B0DD06E4B1B78002B80
:104A880009D16D4B1B78002B05D16C4B734A1B78F1
:104A9800002B00D140E105F067FB2368C01AC82845
:104AA80028D980216748890006F098FA002821D182
:104AB800654B1B78002B1DD1644B1B78002B19D03C
:104AC800634B1B78002B15D1624B1B78002B11D13F
:104AD800574B1B78002B0DD0564B1B78002B09D158
:104AE800554B1B78002B05D1544B5C4A1B78002B87
:104AF80000D152E205F038FB2368C01AC82828D92B
:104B080080215048490006F069FA002821D14E4B0F
:104B18001B78002B1DD14D4B1B78002B19D04C4B0B
:104B28001B78002B15D14B4B1B78002B11D1404B18
:104B38001B78002B0DD13F4B1B78002B09D03E4B27
:104B48001B78002B05D13D4B454A1B78002B00D123
:104B5800E2E005F009FB2368C01AC82828D980219B
:104B68003848890006F03AFA002821D1364B1B78DC
:104B7800002B1DD1354B1B78002B19D0344B1B78DB
:104B8800002B15D1334B1B78002B11D1284B1B78E8
:104B9800002B0DD1274B1B78002B09D0264B1B78F7
:104BA800002B05D1254B2E4A1B78002B00D1F4E1B0
:104BB80005F0DAFA2368C01AC82828D980212148C4
:104BC800490006F00BFA002821D11F4B1B78002B57
:104BD8001DD11E4B1B78002B19D01D4B1B78002BA9
:104BE80015D11C4B1B78002B11D1114B1B78002BB6
:104BF8000DD1104B1B78002B09D10F4B1B78002BC4
:104C080005D00E4B174A1B78002B00D184E005F025
:104C1800ABFA2368C01AC82846D9802109488900F8
:104C280006F0DCF900283FD1074B1B781CE0C04692
:104C3800A7010020A6010020A5010020A401002052
:104C4800A001002000040050AB010020AA010020B0
:104C5800A9010020A80100209C0100201C000020C0
:104C68001800002010000020002B1DD1D14B1B780C
:104C7800002B19D0D04B1B78002B15D1CF4B1B78AC
:104C8800002B11D1CE4B1B78002B0DD1CD4B1B78AF
:104C9800002B09D1CC4B1B78002B05D0CB4BCC4A31
:104CA8001B78002B00D178E105F05EFA2368C01A62
:104CB800C82800D839E18021C648490006F08EF995
:104CC800002800D031E1C44B1B78002B00D02CE128
:104CD800B84B1B78002B00D127E1B74B1B78002B72
:104CE80000D022E1B54B1B78002B00D01DE1B44B5E
:104CF8001B78002B00D018E1B24B1B78002B00D09A
:104D080013E1B14B1B78002B00D00EE1AF4B1B78A1
:104D1800002B00D109E1B14A1368013B136005F08B
:104D280023FA206004F06AFF05F01EFA2368C01A0F
:104D3800C82800D839E18021A64806F04FF9002894
:104D480000D032E105F010FAA54A20601068032867
:104D580000D92AE1FBF7F6F9240154015E01890123
:104D6800974B01251B789F4A002B00D19E4A2300B0
:104D7800152117200195009505F066F823001521E7
:104D88002E209A4A0195009505F05EF8230015211A
:104D98005220974A0195009505F056F805F0E4F978
:104DA8003368C01AC82800D84DE48021894806F025
:104DB80015F9002800D046E405F0D6F9804A30609D
:104DC800012311784B40137004F018FF3BE47D4B2E
:104DD80001251B78834A002B00D1864A2300152120
:104DE80017200195009505F02FF8230015212E2096
:104DF8007E4A0195009505F027F8230015215220D9
:104E08007B4A0195009505F01FF805F0ADF9336868
:104E1800C01AC82800D816E480216E4806F0DEF8CB
:104E2800002800D00FE405F09FF9664A3060C7E714
:104E38000125654B1B7801950095002B2AD03A0077
:104E480023001521172004F0FFFF664A23001521CF
:104E58002E200195009504F0F7FF2300152152201C
:104E6800634A0195009504F0EFFF05F07DF933687A
:104E7800C01AC82801D8FFF7E6FB8021554806F07C
:104E8800ADF8002801D0FFF7DEFB05F06DF94E4ABA
:104E9800306095E73A0023001521172004F0D4FF6D
:104EA800544AD3E70125494B1B7801950095002BFF
:104EB8002BD023003A001521172004F0C5FF3A0033
:104EC800230015212E200195009504F0BDFF454AC9
:104ED8002300152152200195009504F0B5FF05F037
:104EE80043F9454C2368C01AC82801D8FFF7ABFB23
:104EF8008021384806F072F8002801D0FFF7A3FB9C
:104F080005F032F9314A20605AE723003A001521AA
:104F1800172004F099FF3A00230015212E2001954F
:104F2800009504F091FF334AD2E705F01DF9236894
:104F3800C01AC82800D8F7E680212648890006F05C
:104F48004DF8002800D0EFE6234B1B78002B00D04B
:104F5800EAE6184B1B78002B00D1E5E6164B1B78C8
:104F6800002B00D0E0E6154B1B78002B00D0DBE6C9
:104F7800134B1B78002B00D0D6E6124B1B78002B66
:104F880000D0D1E6104B1B78002B00D0CCE60F4B9D
:104F98001B78002B00D1C7E6104A13680133BDE621
:104FA800164B0D4A1B68002B2FD004F027FE07B0C4
:104FB800F0BDC046AA010020A9010020A8010020D8
:104FC800A7010020A6010020A5010020A4010020BF
:104FD8001000002000040050AB0100201400002045
:104FE800980100206DF10008C6EC0008A8EC000844
:104FF800C5F10008C8EC0008EC010020940100206D
:10500800224B1B68002BD0D1214A117801334B4029
:105018001370CAE704F0B6FD0123202103201D4ABE
:1050280001930093039B04F00FFF04F0E7FD049B3A
:1050380000221968184BC9B21868C0B204F018FCED
:10504800164B174A174918481B6812680968006800
:105058009BB2D2B2C9B2C0B204F0E0FBFA20C000E1
:1050680005F088F804F08EFD9FE700240F4B1460CC
:105078001C6004F087FD04F07BFD04F0BFFD05F023
:1050880073F80B4B18600B4B1C708EE790010020D7
:10509800AA0100205EED0008A001002010000020F9
:1050A80014000020180000201C000020E40100204B
:1050B800E8010020FE010020F7B5D24D2B68102B27
:1050C80029D910232B600124CF4E3621330000202C
:1050D800CE4A0194009404F0B7FE24203300362110
:1050E800CB4A0194009404F0AFFE286801380F28D9
:1050F80036D8FBF727F8140073008E00A900C40007
:10510800DF00FA001501340150016B01B701D2012B
:10511800ED0108022302002BD5D10133D2E7BD4EA1
:105128000B2133000020BC4A0194009404F08CFE4B
:10513800330015210020B94A0194009404F084FE3C
:10514800B74A33001F2100200194009404F07CFE2C
:10515800B44A3300019400942921002004F074FE1D
:1051680005F002F8B04C2368C01AC82818D9802165
:10517800AE4805F033FF061E12D104F0F5FF20609B
:1051880004F0F6FC04F0FEFC04F038FDA84B1E60A9
:1051980001232B6004F0E8FFA64B1860A64B1E7095
:1051A80004F0E2FF2368C01AC82800D8D0E18021A3
:1051B8009E48490005F012FF002800D0C8E104F01D
:1051C800D3FF2B68206001332B600F2B01D904F02B
:1051D800D9FC04F013FD04F011FDF7BD8D4E0B2131
:1051E800330000208D4A0194009404F02DFE330012
:1051F800152100208A4A0194009404F025FE894A6A
:1052080033001F2100200194009404F01DFE8B4AF6
:105218009FE7804E0B2133000020814A01940094BF
:1052280004F012FE3300152100207E4A01940094F8
:1052380004F00AFE814A33001F21002001940094E3
:1052480004F002FE7E4A84E7724E0B2133000020F0
:10525800744A0194009404F0F7FD330015210020EE
:10526800764A0194009404F0EFFD754A33001F213B
:1052780000200194009404F0E7FD724A69E7654E46
:105288000B21330000206D4A0194009404F0DCFDEA
:105298003300152100206A4A0194009404F0D4FDDB
:1052A800684A33001F2100200194009404F0CCFDCB
:1052B800654A4EE7574E0B2133000020604A01949F
:1052C800009404F0C1FD3300152100205D4A0194CB
:1052D800009404F0B9FD5D4A33001F2100200194B9
:1052E800009404F0B1FD5A4A33E74A4E0B213300CB
:1052F8000020544A0194009404F0A6FD33001521BF
:105308000020524A0194009404F09EFD504A330054
:105318001F2100200194009404F096FD4D4A18E7DF
:105328003C4E0B2133000020484A0194009404F0BD
:105338008BFD474F33003A0015210020019400945B
:1053480004F082FD3300434A1F2100200194009499
:1053580004F07AFD33003A0001940094FCE62D4EE7
:105368003B4F33003A000B2100200194009404F0D5
:105378006BFD330015210020364A0194009404F097
:1053880063FD3A0033001F2100200194009404F0CB
:105398005BFD314ADDE61F4E0B21330000202D4A0C
:1053A8000194009404F050FD330015210020284A90
:1053B8000194009404F048FD274A33001F2100207F
:1053C8000194009404F040FD244AC2E6114E0B21DA
:1053D800330000201E4A0194009404F035FD330088
:1053E800152100201C4A0194009404F02DFD1B4A4D
:1053F80033001F2100200194009404F025FD184A71
:10540800A7E6C046000000206C00002053ED00080D
:10541800C6EC0008740000207FED00089AED000833
:10542800B1ED0008C6ED0008EC01002000040050B2
:10543800E4010020E8010020FC010020E7ED00085D
:105448000DEE000832EE000858EE00087EEE000867
:10545800A4EE0008B9EE0008E0EE000802EF00082C
:1054680017EF0008484E0B2133000020474A0194EB
:10547800009404F0E9FC330015210020444A01940B
:10548800009404F0E1FC434A33001F2100200194FA
:10549800009404F0D9FC404A5BE63B4E0B213300F4
:1054A80000203B4A0194009404F0CEFC33001521FF
:1054B8000020384A0194009404F0C6FC364A3300B0
:1054C8001F2100200194009404F0BEFC334A40E6FA
:1054D8002D4E0B21330000202E4A0194009404F035
:1054E800B3FC3300152100202B4A0194009404F0EA
:1054F800ABFC2A4A33001F2100200194009404F0D9
:10550800A3FC274A25E6204E0B2133000020224A1F
:105518000194009404F098FC3300152100201F4AE0
:105528000194009404F090FC1D4A33001F210020D0
:105538000194009404F088FC1A4A0AE62A230B21F5
:1055480000930020184A0194563304F088FB07E6BC
:1055580004F00AFE2368C01AC82800D83BE6802158
:105568001248890005F03AFD002800D033E604F01F
:10557800FBFD2B682060102B01D104F003FB2B6886
:10558800013B2B6025E6C04674000020E0EE0008D1
:1055980002EF000817EF00083FEF00085EEF000871
:1055A80073EF000888EF000822F20008000400509A
:1055B800F0B5AE4B85B01C78002C43D1AC4DAD4B4B
:1055C800AD4E2A6831001800029308F0BDF8AB4BC5
:1055D800AB4F180031003A68039308F0B5F82B6810
:1055E800A84D092B00D9A8E001263B68A64F0196D3
:1055F8000096092B00D983E02B003A0021005E2099
:1056080004F022FC2B0021006420029A01960096E7
:1056180004F01AFC2B009D4A21006B20019600968D
:1056280004F012FC2B003A0001960096210072202B
:1056380004F00AFC2B0021007820039A01960096BA
:1056480004F002FC924B1978002900D19AE001235A
:1056580001930733009300210D208E4A043304F090
:10566800FEFA8D4B1978002900D192E001230193AD
:105678000733009300211D20884A043304F0EFFA11
:10568800092301267F2219000020009604F053FC0C
:10569800834C200005F0BAF83221200004F0ACFE5B
:1056A800200004F00DFF7F4D2860200005F06EF902
:1056B8002868FBF7B9FD7C4B7C4C1968FBF766FA48
:1056C8007B49FBF77DF80923206019007F22002021
:1056D800009604F030FC24687649201CFAF722FE74
:1056E800051E5DD00823002100930220023B724A68
:1056F800019604F0B4FA002300930433032267E010
:105708002B003A0021005E2004F09EFB2B00029A39
:10571800210064200196009604F096FB2B005B4A5A
:105728000196009621006B2004F08EFB2B002100CF
:105738007220039A0196009682E701263B68534F30
:1057480001960096092B12D82B0021005E20029AA0
:1057580004F07AFB2B003A0021006B20019600969A
:1057680004F072FB2B00484A019600965EE72B0076
:10577800029A21005E2004F067FB2B003A00019694
:105788000096CFE708230D220C20009104F076FC48
:1057980067E708230D221C20009104F06FFC6FE7D7
:1057A8004449201CFAF7C8FD002817D04349201C9B
:1057B800FAF7B8FD002811D00823414A00932900C0
:1057C800023B0220019604F04AFA03231A000095CE
:1057D8000221100004F052FC05B0F0BD3749201C2E
:1057E800FAF7AAFD002815D03649201CFAF79AFDC9
:1057F80000280FD00123019307330021324A009378
:105808000220023B04F02BFA002300930233032208
:105818001900DEE72B49201CFAF78EFD002813D06B
:105828002A49201CFAF77EFD00280DD00124082300
:10583800002100930220023B254A019404F00FFA4C
:1058480000230093230059E72049201CFAF774FD30
:105858000028C1D0012301930733009300210220BF
:105868001C4A023B04F0FBF9B6E7C04628000020BA
:10587800B40100201101002091EC00080C01002067
:10588800B001002074000020B6F10008B5EF000850
:10589800E1010020F2F40008E0010020E2F4000831
:1058A800A00400208C0100205000002044020020A9
:1058B80000F07F456666064022F500080AD71340C7
:1058C8001AF500080AD7334012F50008A4704D40B5
:1058D8000AF5000802F500080122014B1A7070470A
:1058E800B901002010B572B6FA20800004F042FC1D
:1058F800FDF76CFAF0B5DB4ADB4D87B003922B78E5
:10590800DA4ADB4FDB4EDC4C0292002B1FD004221C
:105918003900082003F072FB04223100102003F044
:105928006DFB01220399282003F068FB0422210063
:10593800182003F063FB04220299202003F05EFB89
:1059480001223020CD4903F059FB00232B70CC4BAA
:105958001A68002A00DBE5E004221A60C94B1A68BD
:10596800032A00DCE3E003221A60C74B1A68032A03
:1059780000DCE1E003221A60039BC44D1A7801237E
:10598800002A00D1DDE0C24A019300930B212B00CD
:105998002C2004F059FAB94B1A780123002A00D1B7
:1059A800D1E0BB4A0193009315212B002C2004F071
:1059B8004BFA3B68172B00DCC7E000233B603368D9
:1059C8003B2B00DCC6E0002333602368172B00DC88
:1059D800C5E000232360029B1B683B2B00DCC3E06F
:1059E8000023029A136001242B000B210820A94AE6
:1059F8000194009404F028FA2B0015210820A64AE7
:105A08000194009404F020FA2B0020210820A34AD6
:105A18000194009404F018FA2B002B210820A04AC6
:105A28000194009404F010FA2B00362108209D4AB6
:105A38000194009404F008FA9B4A9C4E8C4B029205
:105A480031001A680298049307F07EFE8A4B3100F1
:105A58001A68974807F078FE964B864F3100180071
:105A68003A68039307F070FE804B31001A68924839
:105A780007F06AFE049B914E1B68092B00DC95E039
:105A88003B6801940094092B73DD2B000B215120F6
:105A9800029A04F0D9F92B0032000B2160200194FE
:105AA800009404F0D1F92B000B216820039A01948B
:105AB800009404F0C9F9704A6C4B0392126802937F
:105AC80001241B68714D092A00DCB9E0784A019469
